{
  "_format": "hh-sol-artifact-1",
  "contractName": "Tiramisu",
  "sourceName": "contracts/Tiramisu.sol",
  "abi": [
    {
      "inputs": [
        {
          "internalType": "string",
          "name": "baseURI",
          "type": "string"
        },
        {
          "internalType": "address[]",
          "name": "eligibleForPremintArr",
          "type": "address[]"
        }
      ],
      "stateMutability": "nonpayable",
      "type": "constructor"
    },
    {
      "anonymous": false,
      "inputs": [
        {
          "indexed": true,
          "internalType": "address",
          "name": "owner",
          "type": "address"
        },
        {
          "indexed": true,
          "internalType": "address",
          "name": "approved",
          "type": "address"
        },
        {
          "indexed": true,
          "internalType": "uint256",
          "name": "tokenId",
          "type": "uint256"
        }
      ],
      "name": "Approval",
      "type": "event"
    },
    {
      "anonymous": false,
      "inputs": [
        {
          "indexed": true,
          "internalType": "address",
          "name": "owner",
          "type": "address"
        },
        {
          "indexed": true,
          "internalType": "address",
          "name": "operator",
          "type": "address"
        },
        {
          "indexed": false,
          "internalType": "bool",
          "name": "approved",
          "type": "bool"
        }
      ],
      "name": "ApprovalForAll",
      "type": "event"
    },
    {
      "anonymous": false,
      "inputs": [
        {
          "indexed": true,
          "internalType": "address",
          "name": "previousOwner",
          "type": "address"
        },
        {
          "indexed": true,
          "internalType": "address",
          "name": "newOwner",
          "type": "address"
        }
      ],
      "name": "OwnershipTransferred",
      "type": "event"
    },
    {
      "anonymous": false,
      "inputs": [
        {
          "indexed": true,
          "internalType": "address",
          "name": "from",
          "type": "address"
        },
        {
          "indexed": true,
          "internalType": "address",
          "name": "to",
          "type": "address"
        },
        {
          "indexed": true,
          "internalType": "uint256",
          "name": "tokenId",
          "type": "uint256"
        }
      ],
      "name": "Transfer",
      "type": "event"
    },
    {
      "inputs": [],
      "name": "MAX_SUPPLY",
      "outputs": [
        {
          "internalType": "uint256",
          "name": "",
          "type": "uint256"
        }
      ],
      "stateMutability": "view",
      "type": "function"
    },
    {
      "inputs": [],
      "name": "PRICE",
      "outputs": [
        {
          "internalType": "uint256",
          "name": "",
          "type": "uint256"
        }
      ],
      "stateMutability": "view",
      "type": "function"
    },
    {
      "inputs": [
        {
          "internalType": "address",
          "name": "to",
          "type": "address"
        },
        {
          "internalType": "uint256",
          "name": "tokenId",
          "type": "uint256"
        }
      ],
      "name": "approve",
      "outputs": [],
      "stateMutability": "nonpayable",
      "type": "function"
    },
    {
      "inputs": [
        {
          "internalType": "address",
          "name": "owner",
          "type": "address"
        }
      ],
      "name": "balanceOf",
      "outputs": [
        {
          "internalType": "uint256",
          "name": "",
          "type": "uint256"
        }
      ],
      "stateMutability": "view",
      "type": "function"
    },
    {
      "inputs": [
        {
          "internalType": "uint256",
          "name": "tokenId",
          "type": "uint256"
        }
      ],
      "name": "getApproved",
      "outputs": [
        {
          "internalType": "address",
          "name": "",
          "type": "address"
        }
      ],
      "stateMutability": "view",
      "type": "function"
    },
    {
      "inputs": [],
      "name": "getTokensLeft",
      "outputs": [
        {
          "internalType": "uint256",
          "name": "",
          "type": "uint256"
        }
      ],
      "stateMutability": "view",
      "type": "function"
    },
    {
      "inputs": [],
      "name": "isAddressEligibleForPremint",
      "outputs": [
        {
          "internalType": "bool",
          "name": "",
          "type": "bool"
        }
      ],
      "stateMutability": "view",
      "type": "function"
    },
    {
      "inputs": [
        {
          "internalType": "address",
          "name": "owner",
          "type": "address"
        },
        {
          "internalType": "address",
          "name": "operator",
          "type": "address"
        }
      ],
      "name": "isApprovedForAll",
      "outputs": [
        {
          "internalType": "bool",
          "name": "",
          "type": "bool"
        }
      ],
      "stateMutability": "view",
      "type": "function"
    },
    {
      "inputs": [],
      "name": "isPremintPhase",
      "outputs": [
        {
          "internalType": "bool",
          "name": "",
          "type": "bool"
        }
      ],
      "stateMutability": "view",
      "type": "function"
    },
    {
      "inputs": [],
      "name": "mint",
      "outputs": [],
      "stateMutability": "payable",
      "type": "function"
    },
    {
      "inputs": [],
      "name": "name",
      "outputs": [
        {
          "internalType": "string",
          "name": "",
          "type": "string"
        }
      ],
      "stateMutability": "view",
      "type": "function"
    },
    {
      "inputs": [],
      "name": "owner",
      "outputs": [
        {
          "internalType": "address",
          "name": "",
          "type": "address"
        }
      ],
      "stateMutability": "view",
      "type": "function"
    },
    {
      "inputs": [
        {
          "internalType": "uint256",
          "name": "tokenId",
          "type": "uint256"
        }
      ],
      "name": "ownerOf",
      "outputs": [
        {
          "internalType": "address",
          "name": "",
          "type": "address"
        }
      ],
      "stateMutability": "view",
      "type": "function"
    },
    {
      "inputs": [],
      "name": "renounceOwnership",
      "outputs": [],
      "stateMutability": "nonpayable",
      "type": "function"
    },
    {
      "inputs": [
        {
          "internalType": "address",
          "name": "from",
          "type": "address"
        },
        {
          "internalType": "address",
          "name": "to",
          "type": "address"
        },
        {
          "internalType": "uint256",
          "name": "tokenId",
          "type": "uint256"
        }
      ],
      "name": "safeTransferFrom",
      "outputs": [],
      "stateMutability": "nonpayable",
      "type": "function"
    },
    {
      "inputs": [
        {
          "internalType": "address",
          "name": "from",
          "type": "address"
        },
        {
          "internalType": "address",
          "name": "to",
          "type": "address"
        },
        {
          "internalType": "uint256",
          "name": "tokenId",
          "type": "uint256"
        },
        {
          "internalType": "bytes",
          "name": "_data",
          "type": "bytes"
        }
      ],
      "name": "safeTransferFrom",
      "outputs": [],
      "stateMutability": "nonpayable",
      "type": "function"
    },
    {
      "inputs": [
        {
          "internalType": "address",
          "name": "operator",
          "type": "address"
        },
        {
          "internalType": "bool",
          "name": "approved",
          "type": "bool"
        }
      ],
      "name": "setApprovalForAll",
      "outputs": [],
      "stateMutability": "nonpayable",
      "type": "function"
    },
    {
      "inputs": [
        {
          "internalType": "string",
          "name": "baseURI",
          "type": "string"
        }
      ],
      "name": "setBaseURI",
      "outputs": [],
      "stateMutability": "nonpayable",
      "type": "function"
    },
    {
      "inputs": [
        {
          "internalType": "bool",
          "name": "_isPremintPhase",
          "type": "bool"
        }
      ],
      "name": "setIsPremintPhase",
      "outputs": [],
      "stateMutability": "nonpayable",
      "type": "function"
    },
    {
      "inputs": [
        {
          "internalType": "bytes4",
          "name": "interfaceId",
          "type": "bytes4"
        }
      ],
      "name": "supportsInterface",
      "outputs": [
        {
          "internalType": "bool",
          "name": "",
          "type": "bool"
        }
      ],
      "stateMutability": "view",
      "type": "function"
    },
    {
      "inputs": [],
      "name": "symbol",
      "outputs": [
        {
          "internalType": "string",
          "name": "",
          "type": "string"
        }
      ],
      "stateMutability": "view",
      "type": "function"
    },
    {
      "inputs": [
        {
          "internalType": "uint256",
          "name": "tokenId",
          "type": "uint256"
        }
      ],
      "name": "tokenURI",
      "outputs": [
        {
          "internalType": "string",
          "name": "",
          "type": "string"
        }
      ],
      "stateMutability": "view",
      "type": "function"
    },
    {
      "inputs": [
        {
          "internalType": "address",
          "name": "from",
          "type": "address"
        },
        {
          "internalType": "address",
          "name": "to",
          "type": "address"
        },
        {
          "internalType": "uint256",
          "name": "tokenId",
          "type": "uint256"
        }
      ],
      "name": "transferFrom",
      "outputs": [],
      "stateMutability": "nonpayable",
      "type": "function"
    },
    {
      "inputs": [
        {
          "internalType": "address",
          "name": "newOwner",
          "type": "address"
        }
      ],
      "name": "transferOwnership",
      "outputs": [],
      "stateMutability": "nonpayable",
      "type": "function"
    },
    {
      "inputs": [],
      "name": "withdraw",
      "outputs": [],
      "stateMutability": "nonpayable",
      "type": "function"
    }
  ],
  "bytecode": "0x60806040526001600960006101000a81548160ff0219169083151502179055503480156200002c57600080fd5b506040516200480c3803806200480c833981810160405281019062000052919062000a6b565b6040518060400160405280601981526020017f546972616d69737520526563697065206279205354494c4c5a000000000000008152506040518060400160405280600581526020017f544d4953550000000000000000000000000000000000000000000000000000008152508160009080519060200190620000d69291906200084d565b508060019080519060200190620000ef9291906200084d565b50505062000112620001066200027a60201b60201c565b6200028260201b60201c565b81600790805190602001906200012a9291906200084d565b5060005b8151811015620001e7576001600a600084848151811062000178577f4e487b7100000000000000000000000000000000000000000000000000000000600052603260045260246000fd5b602002602001015173ffffffffffffffffffffffffffffffffffffffff1673ffffffffffffffffffffffffffffffffffffffff16815260200190815260200160002060006101000a81548160ff0219169083151502179055508080620001de9062000e94565b9150506200012e565b5060006200020160086200034860201b620014231760201c565b905060005b601e8110156200027057620002437336c174b93d814c91909d5870bd063e228bbaf8c5828462000237919062000d2b565b6200035660201b60201c565b6200025a60086200037c60201b620014311760201c565b8080620002679062000e94565b91505062000206565b5050505062001055565b600033905090565b6000600660009054906101000a900473ffffffffffffffffffffffffffffffffffffffff16905081600660006101000a81548173ffffffffffffffffffffffffffffffffffffffff021916908373ffffffffffffffffffffffffffffffffffffffff1602179055508173ffffffffffffffffffffffffffffffffffffffff168173ffffffffffffffffffffffffffffffffffffffff167f8be0079c531659141344cd1fd0a4f28419497f9722a3daafe3b4186f6b6457e060405160405180910390a35050565b600081600001549050919050565b620003788282604051806020016040528060008152506200039260201b60201c565b5050565b6001816000016000828254019250508190555050565b620003a483836200040060201b60201c565b620003b96000848484620005fa60201b60201c565b620003fb576040517f08c379a0000000000000000000000000000000000000000000000000000000008152600401620003f29062000c0a565b60405180910390fd5b505050565b600073ffffffffffffffffffffffffffffffffffffffff168273ffffffffffffffffffffffffffffffffffffffff16141562000473576040517f08c379a00000000000000000000000000000000000000000000000000000000081526004016200046a9062000c4e565b60405180910390fd5b6200048481620007b460201b60201c565b15620004c7576040517f08c379a0000000000000000000000000000000000000000000000000000000008152600401620004be9062000c2c565b60405180910390fd5b620004db600083836200082060201b60201c565b6001600360008473ffffffffffffffffffffffffffffffffffffffff1673ffffffffffffffffffffffffffffffffffffffff16815260200190815260200160002060008282546200052d919062000d2b565b92505081905550816002600083815260200190815260200160002060006101000a81548173ffffffffffffffffffffffffffffffffffffffff021916908373ffffffffffffffffffffffffffffffffffffffff160217905550808273ffffffffffffffffffffffffffffffffffffffff16600073ffffffffffffffffffffffffffffffffffffffff167fddf252ad1be2c89b69c2b068fc378daa952ba7f163c4a11628f55a4df523b3ef60405160405180910390a4620005f6600083836200082560201b60201c565b5050565b6000620006288473ffffffffffffffffffffffffffffffffffffffff166200082a60201b620014471760201c565b15620007a7578373ffffffffffffffffffffffffffffffffffffffff1663150b7a026200065a6200027a60201b60201c565b8786866040518563ffffffff1660e01b81526004016200067e949392919062000bb6565b602060405180830381600087803b1580156200069957600080fd5b505af1925050508015620006cd57506040513d601f19601f82011682018060405250810190620006ca919062000a3f565b60015b62000756573d806000811462000700576040519150601f19603f3d011682016040523d82523d6000602084013e62000705565b606091505b506000815114156200074e576040517f08c379a0000000000000000000000000000000000000000000000000000000008152600401620007459062000c0a565b60405180910390fd5b805181602001fd5b63150b7a0260e01b7bffffffffffffffffffffffffffffffffffffffffffffffffffffffff1916817bffffffffffffffffffffffffffffffffffffffffffffffffffffffff191614915050620007ac565b600190505b949350505050565b60008073ffffffffffffffffffffffffffffffffffffffff166002600084815260200190815260200160002060009054906101000a900473ffffffffffffffffffffffffffffffffffffffff1673ffffffffffffffffffffffffffffffffffffffff1614159050919050565b505050565b505050565b6000808273ffffffffffffffffffffffffffffffffffffffff163b119050919050565b8280546200085b9062000e28565b90600052602060002090601f0160209004810192826200087f5760008555620008cb565b82601f106200089a57805160ff1916838001178555620008cb565b82800160010185558215620008cb579182015b82811115620008ca578251825591602001919060010190620008ad565b5b509050620008da9190620008de565b5090565b5b80821115620008f9576000816000905550600101620008df565b5090565b6000620009146200090e8462000c99565b62000c70565b905080838252602082019050828560208602820111156200093457600080fd5b60005b858110156200096857816200094d8882620009b7565b84526020840193506020830192505060018101905062000937565b5050509392505050565b600062000989620009838462000cc8565b62000c70565b905082815260208101848484011115620009a257600080fd5b620009af84828562000df2565b509392505050565b600081519050620009c88162001021565b92915050565b600082601f830112620009e057600080fd5b8151620009f2848260208601620008fd565b91505092915050565b60008151905062000a0c816200103b565b92915050565b600082601f83011262000a2457600080fd5b815162000a3684826020860162000972565b91505092915050565b60006020828403121562000a5257600080fd5b600062000a6284828501620009fb565b91505092915050565b6000806040838503121562000a7f57600080fd5b600083015167ffffffffffffffff81111562000a9a57600080fd5b62000aa88582860162000a12565b925050602083015167ffffffffffffffff81111562000ac657600080fd5b62000ad485828601620009ce565b9150509250929050565b62000ae98162000d88565b82525050565b600062000afc8262000cfe565b62000b08818562000d09565b935062000b1a81856020860162000df2565b62000b258162000f6f565b840191505092915050565b600062000b3f60328362000d1a565b915062000b4c8262000f80565b604082019050919050565b600062000b66601c8362000d1a565b915062000b738262000fcf565b602082019050919050565b600062000b8d60208362000d1a565b915062000b9a8262000ff8565b602082019050919050565b62000bb08162000de8565b82525050565b600060808201905062000bcd600083018762000ade565b62000bdc602083018662000ade565b62000beb604083018562000ba5565b818103606083015262000bff818462000aef565b905095945050505050565b6000602082019050818103600083015262000c258162000b30565b9050919050565b6000602082019050818103600083015262000c478162000b57565b9050919050565b6000602082019050818103600083015262000c698162000b7e565b9050919050565b600062000c7c62000c8f565b905062000c8a828262000e5e565b919050565b6000604051905090565b600067ffffffffffffffff82111562000cb75762000cb662000f40565b5b602082029050602081019050919050565b600067ffffffffffffffff82111562000ce65762000ce562000f40565b5b62000cf18262000f6f565b9050602081019050919050565b600081519050919050565b600082825260208201905092915050565b600082825260208201905092915050565b600062000d388262000de8565b915062000d458362000de8565b9250827fffffffffffffffffffffffffffffffffffffffffffffffffffffffffffffffff0382111562000d7d5762000d7c62000ee2565b5b828201905092915050565b600062000d958262000dc8565b9050919050565b60007fffffffff0000000000000000000000000000000000000000000000000000000082169050919050565b600073ffffffffffffffffffffffffffffffffffffffff82169050919050565b6000819050919050565b60005b8381101562000e1257808201518184015260208101905062000df5565b8381111562000e22576000848401525b50505050565b6000600282049050600182168062000e4157607f821691505b6020821081141562000e585762000e5762000f11565b5b50919050565b62000e698262000f6f565b810181811067ffffffffffffffff8211171562000e8b5762000e8a62000f40565b5b80604052505050565b600062000ea18262000de8565b91507fffffffffffffffffffffffffffffffffffffffffffffffffffffffffffffffff82141562000ed75762000ed662000ee2565b5b600182019050919050565b7f4e487b7100000000000000000000000000000000000000000000000000000000600052601160045260246000fd5b7f4e487b7100000000000000000000000000000000000000000000000000000000600052602260045260246000fd5b7f4e487b7100000000000000000000000000000000000000000000000000000000600052604160045260246000fd5b6000601f19601f8301169050919050565b7f4552433732313a207472616e7366657220746f206e6f6e20455243373231526560008201527f63656976657220696d706c656d656e7465720000000000000000000000000000602082015250565b7f4552433732313a20746f6b656e20616c7265616479206d696e74656400000000600082015250565b7f4552433732313a206d696e7420746f20746865207a65726f2061646472657373600082015250565b6200102c8162000d88565b81146200103857600080fd5b50565b620010468162000d9c565b81146200105257600080fd5b50565b6137a780620010656000396000f3fe6080604052600436106101665760003560e01c80636352211e116100d157806395d89b411161008a578063c87b56dd11610064578063c87b56dd146104e3578063de5f986614610520578063e985e9c51461054b578063f2fde38b1461058857610166565b806395d89b4114610466578063a22cb46514610491578063b88d4fde146104ba57610166565b80636352211e1461035457806370a0823114610391578063715018a6146103ce57806382a81a50146103e55780638d859f3e146104105780638da5cb5b1461043b57610166565b806332cb6b0c1161012357806332cb6b0c1461026c57806337230ba2146102975780633ccfd60b146102c257806342842e0e146102d957806355f804b3146103025780635c9b75711461032b57610166565b806301ffc9a71461016b57806306fdde03146101a8578063081812fc146101d3578063095ea7b3146102105780631249c58b1461023957806323b872dd14610243575b600080fd5b34801561017757600080fd5b50610192600480360381019061018d91906125b6565b6105b1565b60405161019f9190612ace565b60405180910390f35b3480156101b457600080fd5b506101bd610693565b6040516101ca9190612ae9565b60405180910390f35b3480156101df57600080fd5b506101fa60048036038101906101f59190612649565b610725565b6040516102079190612a67565b60405180910390f35b34801561021c57600080fd5b5061023760048036038101906102329190612551565b6107aa565b005b6102416108c2565b005b34801561024f57600080fd5b5061026a6004803603810190610265919061244b565b6109d7565b005b34801561027857600080fd5b50610281610a37565b60405161028e9190612d8b565b60405180910390f35b3480156102a357600080fd5b506102ac610a3d565b6040516102b99190612ace565b60405180910390f35b3480156102ce57600080fd5b506102d7610a54565b005b3480156102e557600080fd5b5061030060048036038101906102fb919061244b565b610c6e565b005b34801561030e57600080fd5b5061032960048036038101906103249190612608565b610c8e565b005b34801561033757600080fd5b50610352600480360381019061034d919061258d565b610d24565b005b34801561036057600080fd5b5061037b60048036038101906103769190612649565b610dbd565b6040516103889190612a67565b60405180910390f35b34801561039d57600080fd5b506103b860048036038101906103b391906123e6565b610e6f565b6040516103c59190612d8b565b60405180910390f35b3480156103da57600080fd5b506103e3610f27565b005b3480156103f157600080fd5b506103fa610faf565b6040516104079190612ace565b60405180910390f35b34801561041c57600080fd5b50610425611003565b6040516104329190612d8b565b60405180910390f35b34801561044757600080fd5b5061045061100f565b60405161045d9190612a67565b60405180910390f35b34801561047257600080fd5b5061047b611039565b6040516104889190612ae9565b60405180910390f35b34801561049d57600080fd5b506104b860048036038101906104b39190612515565b6110cb565b005b3480156104c657600080fd5b506104e160048036038101906104dc919061249a565b6110e1565b005b3480156104ef57600080fd5b5061050a60048036038101906105059190612649565b611143565b6040516105179190612ae9565b60405180910390f35b34801561052c57600080fd5b506105356112aa565b6040516105429190612d8b565b60405180910390f35b34801561055757600080fd5b50610572600480360381019061056d919061240f565b6112c8565b60405161057f9190612ace565b60405180910390f35b34801561059457600080fd5b506105af60048036038101906105aa91906123e6565b61132b565b005b60007f80ac58cd000000000000000000000000000000000000000000000000000000007bffffffffffffffffffffffffffffffffffffffffffffffffffffffff1916827bffffffffffffffffffffffffffffffffffffffffffffffffffffffff1916148061067c57507f5b5e139f000000000000000000000000000000000000000000000000000000007bffffffffffffffffffffffffffffffffffffffffffffffffffffffff1916827bffffffffffffffffffffffffffffffffffffffffffffffffffffffff1916145b8061068c575061068b8261146a565b5b9050919050565b6060600080546106a290613046565b80601f01602080910402602001604051908101604052809291908181526020018280546106ce90613046565b801561071b5780601f106106f05761010080835404028352916020019161071b565b820191906000526020600020905b8154815290600101906020018083116106fe57829003601f168201915b5050505050905090565b6000610730826114d4565b61076f576040517f08c379a000000000000000000000000000000000000000000000000000000000815260040161076690612cab565b60405180910390fd5b6004600083815260200190815260200160002060009054906101000a900473ffffffffffffffffffffffffffffffffffffffff169050919050565b60006107b582610dbd565b90508073ffffffffffffffffffffffffffffffffffffffff168373ffffffffffffffffffffffffffffffffffffffff161415610826576040517f08c379a000000000000000000000000000000000000000000000000000000000815260040161081d90612d0b565b60405180910390fd5b8073ffffffffffffffffffffffffffffffffffffffff16610845611540565b73ffffffffffffffffffffffffffffffffffffffff16148061087457506108738161086e611540565b6112c8565b5b6108b3576040517f08c379a00000000000000000000000000000000000000000000000000000000081526004016108aa90612c2b565b60405180910390fd5b6108bd8383611548565b505050565b600960009054906101000a900460ff1615610923576108df610faf565b61091e576040517f08c379a000000000000000000000000000000000000000000000000000000000815260040161091590612d2b565b60405180910390fd5b61096e565b67016345785d8a0000341461096d576040517f08c379a000000000000000000000000000000000000000000000000000000000815260040161096490612bab565b60405180910390fd5b5b600061097a6008611423565b90506103e881106109c0576040517f08c379a00000000000000000000000000000000000000000000000000000000081526004016109b790612b0b565b60405180910390fd5b6109ca3382611601565b6109d46008611431565b50565b6109e86109e2611540565b8261161f565b610a27576040517f08c379a0000000000000000000000000000000000000000000000000000000008152600401610a1e90612d4b565b60405180910390fd5b610a328383836116fd565b505050565b6103e881565b6000600960009054906101000a900460ff16905090565b610a5c611540565b73ffffffffffffffffffffffffffffffffffffffff16610a7a61100f565b73ffffffffffffffffffffffffffffffffffffffff1614610ad0576040517f08c379a0000000000000000000000000000000000000000000000000000000008152600401610ac790612ccb565b60405180910390fd5b600047905060008111610ae257600080fd5b60007336c174b93d814c91909d5870bd063e228bbaf8c573ffffffffffffffffffffffffffffffffffffffff16600a600884610b1e9190612f02565b610b289190612ed1565b604051610b3490612a52565b60006040518083038185875af1925050503d8060008114610b71576040519150601f19603f3d011682016040523d82523d6000602084013e610b76565b606091505b50509050600073c7e7747fa605633817c706377559e5f340a5276e73ffffffffffffffffffffffffffffffffffffffff16600a600285610bb69190612f02565b610bc09190612ed1565b604051610bcc90612a52565b60006040518083038185875af1925050503d8060008114610c09576040519150601f19603f3d011682016040523d82523d6000602084013e610c0e565b606091505b5050905060011515821515148015610c2a575060011515811515145b610c69576040517f08c379a0000000000000000000000000000000000000000000000000000000008152600401610c6090612d6b565b60405180910390fd5b505050565b610c89838383604051806020016040528060008152506110e1565b505050565b610c96611540565b73ffffffffffffffffffffffffffffffffffffffff16610cb461100f565b73ffffffffffffffffffffffffffffffffffffffff1614610d0a576040517f08c379a0000000000000000000000000000000000000000000000000000000008152600401610d0190612ccb565b60405180910390fd5b8060079080519060200190610d2092919061220a565b5050565b610d2c611540565b73ffffffffffffffffffffffffffffffffffffffff16610d4a61100f565b73ffffffffffffffffffffffffffffffffffffffff1614610da0576040517f08c379a0000000000000000000000000000000000000000000000000000000008152600401610d9790612ccb565b60405180910390fd5b80600960006101000a81548160ff02191690831515021790555050565b6000806002600084815260200190815260200160002060009054906101000a900473ffffffffffffffffffffffffffffffffffffffff169050600073ffffffffffffffffffffffffffffffffffffffff168173ffffffffffffffffffffffffffffffffffffffff161415610e66576040517f08c379a0000000000000000000000000000000000000000000000000000000008152600401610e5d90612c6b565b60405180910390fd5b80915050919050565b60008073ffffffffffffffffffffffffffffffffffffffff168273ffffffffffffffffffffffffffffffffffffffff161415610ee0576040517f08c379a0000000000000000000000000000000000000000000000000000000008152600401610ed790612c4b565b60405180910390fd5b600360008373ffffffffffffffffffffffffffffffffffffffff1673ffffffffffffffffffffffffffffffffffffffff168152602001908152602001600020549050919050565b610f2f611540565b73ffffffffffffffffffffffffffffffffffffffff16610f4d61100f565b73ffffffffffffffffffffffffffffffffffffffff1614610fa3576040517f08c379a0000000000000000000000000000000000000000000000000000000008152600401610f9a90612ccb565b60405180910390fd5b610fad6000611964565b565b6000600a60003373ffffffffffffffffffffffffffffffffffffffff1673ffffffffffffffffffffffffffffffffffffffff16815260200190815260200160002060009054906101000a900460ff16905090565b67016345785d8a000081565b6000600660009054906101000a900473ffffffffffffffffffffffffffffffffffffffff16905090565b60606001805461104890613046565b80601f016020809104026020016040519081016040528092919081815260200182805461107490613046565b80156110c15780601f10611096576101008083540402835291602001916110c1565b820191906000526020600020905b8154815290600101906020018083116110a457829003601f168201915b5050505050905090565b6110dd6110d6611540565b8383611a2a565b5050565b6110f26110ec611540565b8361161f565b611131576040517f08c379a000000000000000000000000000000000000000000000000000000000815260040161112890612d4b565b60405180910390fd5b61113d84848484611b97565b50505050565b606061114e826114d4565b61118d576040517f08c379a000000000000000000000000000000000000000000000000000000000815260040161118490612ceb565b60405180910390fd5b60006040518060400160405280600581526020017f2e6a736f6e00000000000000000000000000000000000000000000000000000081525090506000600780546111d690613046565b80601f016020809104026020016040519081016040528092919081815260200182805461120290613046565b801561124f5780601f106112245761010080835404028352916020019161124f565b820191906000526020600020905b81548152906001019060200180831161123257829003601f168201915b50505050509050600081511161127457604051806020016040528060008152506112a1565b8061127e85611bf3565b8360405160200161129193929190612a21565b6040516020818303038152906040525b92505050919050565b60006112b66008611423565b6103e86112c39190612f5c565b905090565b6000737be8076f4ea4a4ad08075c2508e481d6c946d12b73ffffffffffffffffffffffffffffffffffffffff168273ffffffffffffffffffffffffffffffffffffffff16146113205761131b8383611da0565b611323565b60015b905092915050565b611333611540565b73ffffffffffffffffffffffffffffffffffffffff1661135161100f565b73ffffffffffffffffffffffffffffffffffffffff16146113a7576040517f08c379a000000000000000000000000000000000000000000000000000000000815260040161139e90612ccb565b60405180910390fd5b600073ffffffffffffffffffffffffffffffffffffffff168173ffffffffffffffffffffffffffffffffffffffff161415611417576040517f08c379a000000000000000000000000000000000000000000000000000000000815260040161140e90612b4b565b60405180910390fd5b61142081611964565b50565b600081600001549050919050565b6001816000016000828254019250508190555050565b6000808273ffffffffffffffffffffffffffffffffffffffff163b119050919050565b60007f01ffc9a7000000000000000000000000000000000000000000000000000000007bffffffffffffffffffffffffffffffffffffffffffffffffffffffff1916827bffffffffffffffffffffffffffffffffffffffffffffffffffffffff1916149050919050565b60008073ffffffffffffffffffffffffffffffffffffffff166002600084815260200190815260200160002060009054906101000a900473ffffffffffffffffffffffffffffffffffffffff1673ffffffffffffffffffffffffffffffffffffffff1614159050919050565b600033905090565b816004600083815260200190815260200160002060006101000a81548173ffffffffffffffffffffffffffffffffffffffff021916908373ffffffffffffffffffffffffffffffffffffffff160217905550808273ffffffffffffffffffffffffffffffffffffffff166115bb83610dbd565b73ffffffffffffffffffffffffffffffffffffffff167f8c5be1e5ebec7d5bd14f71427d1e84f3dd0314c0f7b2291e5b200ac8c7c3b92560405160405180910390a45050565b61161b828260405180602001604052806000815250611e34565b5050565b600061162a826114d4565b611669576040517f08c379a000000000000000000000000000000000000000000000000000000000815260040161166090612c0b565b60405180910390fd5b600061167483610dbd565b90508073ffffffffffffffffffffffffffffffffffffffff168473ffffffffffffffffffffffffffffffffffffffff1614806116e357508373ffffffffffffffffffffffffffffffffffffffff166116cb84610725565b73ffffffffffffffffffffffffffffffffffffffff16145b806116f457506116f381856112c8565b5b91505092915050565b8273ffffffffffffffffffffffffffffffffffffffff1661171d82610dbd565b73ffffffffffffffffffffffffffffffffffffffff1614611773576040517f08c379a000000000000000000000000000000000000000000000000000000000815260040161176a90612b6b565b60405180910390fd5b600073ffffffffffffffffffffffffffffffffffffffff168273ffffffffffffffffffffffffffffffffffffffff1614156117e3576040517f08c379a00000000000000000000000000000000000000000000000000000000081526004016117da90612bcb565b60405180910390fd5b6117ee838383611e8f565b6117f9600082611548565b6001600360008573ffffffffffffffffffffffffffffffffffffffff1673ffffffffffffffffffffffffffffffffffffffff16815260200190815260200160002060008282546118499190612f5c565b925050819055506001600360008473ffffffffffffffffffffffffffffffffffffffff1673ffffffffffffffffffffffffffffffffffffffff16815260200190815260200160002060008282546118a09190612e7b565b92505081905550816002600083815260200190815260200160002060006101000a81548173ffffffffffffffffffffffffffffffffffffffff021916908373ffffffffffffffffffffffffffffffffffffffff160217905550808273ffffffffffffffffffffffffffffffffffffffff168473ffffffffffffffffffffffffffffffffffffffff167fddf252ad1be2c89b69c2b068fc378daa952ba7f163c4a11628f55a4df523b3ef60405160405180910390a461195f838383611e94565b505050565b6000600660009054906101000a900473ffffffffffffffffffffffffffffffffffffffff16905081600660006101000a81548173ffffffffffffffffffffffffffffffffffffffff021916908373ffffffffffffffffffffffffffffffffffffffff1602179055508173ffffffffffffffffffffffffffffffffffffffff168173ffffffffffffffffffffffffffffffffffffffff167f8be0079c531659141344cd1fd0a4f28419497f9722a3daafe3b4186f6b6457e060405160405180910390a35050565b8173ffffffffffffffffffffffffffffffffffffffff168373ffffffffffffffffffffffffffffffffffffffff161415611a99576040517f08c379a0000000000000000000000000000000000000000000000000000000008152600401611a9090612beb565b60405180910390fd5b80600560008573ffffffffffffffffffffffffffffffffffffffff1673ffffffffffffffffffffffffffffffffffffffff16815260200190815260200160002060008473ffffffffffffffffffffffffffffffffffffffff1673ffffffffffffffffffffffffffffffffffffffff16815260200190815260200160002060006101000a81548160ff0219169083151502179055508173ffffffffffffffffffffffffffffffffffffffff168373ffffffffffffffffffffffffffffffffffffffff167f17307eab39ab6107e8899845ad3d59bd9653f200f220920489ca2b5937696c3183604051611b8a9190612ace565b60405180910390a3505050565b611ba28484846116fd565b611bae84848484611e99565b611bed576040517f08c379a0000000000000000000000000000000000000000000000000000000008152600401611be490612b2b565b60405180910390fd5b50505050565b60606000821415611c3b576040518060400160405280600181526020017f30000000000000000000000000000000000000000000000000000000000000008152509050611d9b565b600082905060005b60008214611c6d578080611c56906130a9565b915050600a82611c669190612ed1565b9150611c43565b60008167ffffffffffffffff811115611caf577f4e487b7100000000000000000000000000000000000000000000000000000000600052604160045260246000fd5b6040519080825280601f01601f191660200182016040528015611ce15781602001600182028036833780820191505090505b5090505b60008514611d9457600182611cfa9190612f5c565b9150600a85611d0991906130f2565b6030611d159190612e7b565b60f81b818381518110611d51577f4e487b7100000000000000000000000000000000000000000000000000000000600052603260045260246000fd5b60200101907effffffffffffffffffffffffffffffffffffffffffffffffffffffffffffff1916908160001a905350600a85611d8d9190612ed1565b9450611ce5565b8093505050505b919050565b6000600560008473ffffffffffffffffffffffffffffffffffffffff1673ffffffffffffffffffffffffffffffffffffffff16815260200190815260200160002060008373ffffffffffffffffffffffffffffffffffffffff1673ffffffffffffffffffffffffffffffffffffffff16815260200190815260200160002060009054906101000a900460ff16905092915050565b611e3e8383612030565b611e4b6000848484611e99565b611e8a576040517f08c379a0000000000000000000000000000000000000000000000000000000008152600401611e8190612b2b565b60405180910390fd5b505050565b505050565b505050565b6000611eba8473ffffffffffffffffffffffffffffffffffffffff16611447565b15612023578373ffffffffffffffffffffffffffffffffffffffff1663150b7a02611ee3611540565b8786866040518563ffffffff1660e01b8152600401611f059493929190612a82565b602060405180830381600087803b158015611f1f57600080fd5b505af1925050508015611f5057506040513d601f19601f82011682018060405250810190611f4d91906125df565b60015b611fd3573d8060008114611f80576040519150601f19603f3d011682016040523d82523d6000602084013e611f85565b606091505b50600081511415611fcb576040517f08c379a0000000000000000000000000000000000000000000000000000000008152600401611fc290612b2b565b60405180910390fd5b805181602001fd5b63150b7a0260e01b7bffffffffffffffffffffffffffffffffffffffffffffffffffffffff1916817bffffffffffffffffffffffffffffffffffffffffffffffffffffffff191614915050612028565b600190505b949350505050565b600073ffffffffffffffffffffffffffffffffffffffff168273ffffffffffffffffffffffffffffffffffffffff1614156120a0576040517f08c379a000000000000000000000000000000000000000000000000000000000815260040161209790612c8b565b60405180910390fd5b6120a9816114d4565b156120e9576040517f08c379a00000000000000000000000000000000000000000000000000000000081526004016120e090612b8b565b60405180910390fd5b6120f560008383611e8f565b6001600360008473ffffffffffffffffffffffffffffffffffffffff1673ffffffffffffffffffffffffffffffffffffffff16815260200190815260200160002060008282546121459190612e7b565b92505081905550816002600083815260200190815260200160002060006101000a81548173ffffffffffffffffffffffffffffffffffffffff021916908373ffffffffffffffffffffffffffffffffffffffff160217905550808273ffffffffffffffffffffffffffffffffffffffff16600073ffffffffffffffffffffffffffffffffffffffff167fddf252ad1be2c89b69c2b068fc378daa952ba7f163c4a11628f55a4df523b3ef60405160405180910390a461220660008383611e94565b5050565b82805461221690613046565b90600052602060002090601f016020900481019282612238576000855561227f565b82601f1061225157805160ff191683800117855561227f565b8280016001018555821561227f579182015b8281111561227e578251825591602001919060010190612263565b5b50905061228c9190612290565b5090565b5b808211156122a9576000816000905550600101612291565b5090565b60006122c06122bb84612dcb565b612da6565b9050828152602081018484840111156122d857600080fd5b6122e3848285613004565b509392505050565b60006122fe6122f984612dfc565b612da6565b90508281526020810184848401111561231657600080fd5b612321848285613004565b509392505050565b60008135905061233881613715565b92915050565b60008135905061234d8161372c565b92915050565b60008135905061236281613743565b92915050565b60008151905061237781613743565b92915050565b600082601f83011261238e57600080fd5b813561239e8482602086016122ad565b91505092915050565b600082601f8301126123b857600080fd5b81356123c88482602086016122eb565b91505092915050565b6000813590506123e08161375a565b92915050565b6000602082840312156123f857600080fd5b600061240684828501612329565b91505092915050565b6000806040838503121561242257600080fd5b600061243085828601612329565b925050602061244185828601612329565b9150509250929050565b60008060006060848603121561246057600080fd5b600061246e86828701612329565b935050602061247f86828701612329565b9250506040612490868287016123d1565b9150509250925092565b600080600080608085870312156124b057600080fd5b60006124be87828801612329565b94505060206124cf87828801612329565b93505060406124e0878288016123d1565b925050606085013567ffffffffffffffff8111156124fd57600080fd5b6125098782880161237d565b91505092959194509250565b6000806040838503121561252857600080fd5b600061253685828601612329565b92505060206125478582860161233e565b9150509250929050565b6000806040838503121561256457600080fd5b600061257285828601612329565b9250506020612583858286016123d1565b9150509250929050565b60006020828403121561259f57600080fd5b60006125ad8482850161233e565b91505092915050565b6000602082840312156125c857600080fd5b60006125d684828501612353565b91505092915050565b6000602082840312156125f157600080fd5b60006125ff84828501612368565b91505092915050565b60006020828403121561261a57600080fd5b600082013567ffffffffffffffff81111561263457600080fd5b612640848285016123a7565b91505092915050565b60006020828403121561265b57600080fd5b6000612669848285016123d1565b91505092915050565b61267b81612f90565b82525050565b61268a81612fa2565b82525050565b600061269b82612e2d565b6126a58185612e43565b93506126b5818560208601613013565b6126be816131df565b840191505092915050565b60006126d482612e38565b6126de8185612e5f565b93506126ee818560208601613013565b6126f7816131df565b840191505092915050565b600061270d82612e38565b6127178185612e70565b9350612727818560208601613013565b80840191505092915050565b6000612740601483612e5f565b915061274b826131f0565b602082019050919050565b6000612763603283612e5f565b915061276e82613219565b604082019050919050565b6000612786602683612e5f565b915061279182613268565b604082019050919050565b60006127a9602583612e5f565b91506127b4826132b7565b604082019050919050565b60006127cc601c83612e5f565b91506127d782613306565b602082019050919050565b60006127ef601f83612e5f565b91506127fa8261332f565b602082019050919050565b6000612812602483612e5f565b915061281d82613358565b604082019050919050565b6000612835601983612e5f565b9150612840826133a7565b602082019050919050565b6000612858602c83612e5f565b9150612863826133d0565b604082019050919050565b600061287b603883612e5f565b91506128868261341f565b604082019050919050565b600061289e602a83612e5f565b91506128a98261346e565b604082019050919050565b60006128c1602983612e5f565b91506128cc826134bd565b604082019050919050565b60006128e4602083612e5f565b91506128ef8261350c565b602082019050919050565b6000612907602c83612e5f565b915061291282613535565b604082019050919050565b600061292a602083612e5f565b915061293582613584565b602082019050919050565b600061294d602f83612e5f565b9150612958826135ad565b604082019050919050565b6000612970602183612e5f565b915061297b826135fc565b604082019050919050565b6000612993600083612e54565b915061299e8261364b565b600082019050919050565b60006129b6602183612e5f565b91506129c18261364e565b604082019050919050565b60006129d9603183612e5f565b91506129e48261369d565b604082019050919050565b60006129fc600f83612e5f565b9150612a07826136ec565b602082019050919050565b612a1b81612ffa565b82525050565b6000612a2d8286612702565b9150612a398285612702565b9150612a458284612702565b9150819050949350505050565b6000612a5d82612986565b9150819050919050565b6000602082019050612a7c6000830184612672565b92915050565b6000608082019050612a976000830187612672565b612aa46020830186612672565b612ab16040830185612a12565b8181036060830152612ac38184612690565b905095945050505050565b6000602082019050612ae36000830184612681565b92915050565b60006020820190508181036000830152612b0381846126c9565b905092915050565b60006020820190508181036000830152612b2481612733565b9050919050565b60006020820190508181036000830152612b4481612756565b9050919050565b60006020820190508181036000830152612b6481612779565b9050919050565b60006020820190508181036000830152612b848161279c565b9050919050565b60006020820190508181036000830152612ba4816127bf565b9050919050565b60006020820190508181036000830152612bc4816127e2565b9050919050565b60006020820190508181036000830152612be481612805565b9050919050565b60006020820190508181036000830152612c0481612828565b9050919050565b60006020820190508181036000830152612c248161284b565b9050919050565b60006020820190508181036000830152612c448161286e565b9050919050565b60006020820190508181036000830152612c6481612891565b9050919050565b60006020820190508181036000830152612c84816128b4565b9050919050565b60006020820190508181036000830152612ca4816128d7565b9050919050565b60006020820190508181036000830152612cc4816128fa565b9050919050565b60006020820190508181036000830152612ce48161291d565b9050919050565b60006020820190508181036000830152612d0481612940565b9050919050565b60006020820190508181036000830152612d2481612963565b9050919050565b60006020820190508181036000830152612d44816129a9565b9050919050565b60006020820190508181036000830152612d64816129cc565b9050919050565b60006020820190508181036000830152612d84816129ef565b9050919050565b6000602082019050612da06000830184612a12565b92915050565b6000612db0612dc1565b9050612dbc8282613078565b919050565b6000604051905090565b600067ffffffffffffffff821115612de657612de56131b0565b5b612def826131df565b9050602081019050919050565b600067ffffffffffffffff821115612e1757612e166131b0565b5b612e20826131df565b9050602081019050919050565b600081519050919050565b600081519050919050565b600082825260208201905092915050565b600081905092915050565b600082825260208201905092915050565b600081905092915050565b6000612e8682612ffa565b9150612e9183612ffa565b9250827fffffffffffffffffffffffffffffffffffffffffffffffffffffffffffffffff03821115612ec657612ec5613123565b5b828201905092915050565b6000612edc82612ffa565b9150612ee783612ffa565b925082612ef757612ef6613152565b5b828204905092915050565b6000612f0d82612ffa565b9150612f1883612ffa565b9250817fffffffffffffffffffffffffffffffffffffffffffffffffffffffffffffffff0483118215151615612f5157612f50613123565b5b828202905092915050565b6000612f6782612ffa565b9150612f7283612ffa565b925082821015612f8557612f84613123565b5b828203905092915050565b6000612f9b82612fda565b9050919050565b60008115159050919050565b60007fffffffff0000000000000000000000000000000000000000000000000000000082169050919050565b600073ffffffffffffffffffffffffffffffffffffffff82169050919050565b6000819050919050565b82818337600083830152505050565b60005b83811015613031578082015181840152602081019050613016565b83811115613040576000848401525b50505050565b6000600282049050600182168061305e57607f821691505b6020821081141561307257613071613181565b5b50919050565b613081826131df565b810181811067ffffffffffffffff821117156130a05761309f6131b0565b5b80604052505050565b60006130b482612ffa565b91507fffffffffffffffffffffffffffffffffffffffffffffffffffffffffffffffff8214156130e7576130e6613123565b5b600182019050919050565b60006130fd82612ffa565b915061310883612ffa565b92508261311857613117613152565b5b828206905092915050565b7f4e487b7100000000000000000000000000000000000000000000000000000000600052601160045260246000fd5b7f4e487b7100000000000000000000000000000000000000000000000000000000600052601260045260246000fd5b7f4e487b7100000000000000000000000000000000000000000000000000000000600052602260045260246000fd5b7f4e487b7100000000000000000000000000000000000000000000000000000000600052604160045260246000fd5b6000601f19601f8301169050919050565b7f6578636565647320746f6b656e20737570706c79000000000000000000000000600082015250565b7f4552433732313a207472616e7366657220746f206e6f6e20455243373231526560008201527f63656976657220696d706c656d656e7465720000000000000000000000000000602082015250565b7f4f776e61626c653a206e6577206f776e657220697320746865207a65726f206160008201527f6464726573730000000000000000000000000000000000000000000000000000602082015250565b7f4552433732313a207472616e736665722066726f6d20696e636f72726563742060008201527f6f776e6572000000000000000000000000000000000000000000000000000000602082015250565b7f4552433732313a20746f6b656e20616c7265616479206d696e74656400000000600082015250565b7f696e636f727265637420657468657220616d6f756e7420737570706c69656400600082015250565b7f4552433732313a207472616e7366657220746f20746865207a65726f2061646460008201527f7265737300000000000000000000000000000000000000000000000000000000602082015250565b7f4552433732313a20617070726f766520746f2063616c6c657200000000000000600082015250565b7f4552433732313a206f70657261746f7220717565727920666f72206e6f6e657860008201527f697374656e7420746f6b656e0000000000000000000000000000000000000000602082015250565b7f4552433732313a20617070726f76652063616c6c6572206973206e6f74206f7760008201527f6e6572206e6f7220617070726f76656420666f7220616c6c0000000000000000602082015250565b7f4552433732313a2062616c616e636520717565727920666f7220746865207a6560008201527f726f206164647265737300000000000000000000000000000000000000000000602082015250565b7f4552433732313a206f776e657220717565727920666f72206e6f6e657869737460008201527f656e7420746f6b656e0000000000000000000000000000000000000000000000602082015250565b7f4552433732313a206d696e7420746f20746865207a65726f2061646472657373600082015250565b7f4552433732313a20617070726f76656420717565727920666f72206e6f6e657860008201527f697374656e7420746f6b656e0000000000000000000000000000000000000000602082015250565b7f4f776e61626c653a2063616c6c6572206973206e6f7420746865206f776e6572600082015250565b7f4552433732314d657461646174613a2055524920717565727920666f72206e6f60008201527f6e6578697374656e7420746f6b656e0000000000000000000000000000000000602082015250565b7f4552433732313a20617070726f76616c20746f2063757272656e74206f776e6560008201527f7200000000000000000000000000000000000000000000000000000000000000602082015250565b50565b7f6164647265737320696e656c696769626c6520666f72207072656d696e74696e60008201527f6700000000000000000000000000000000000000000000000000000000000000602082015250565b7f4552433732313a207472616e736665722063616c6c6572206973206e6f74206f60008201527f776e6572206e6f7220617070726f766564000000000000000000000000000000602082015250565b7f7769746864726177206661696c65640000000000000000000000000000000000600082015250565b61371e81612f90565b811461372957600080fd5b50565b61373581612fa2565b811461374057600080fd5b50565b61374c81612fae565b811461375757600080fd5b50565b61376381612ffa565b811461376e57600080fd5b5056fea2646970667358221220e0faa87cba75a37e3f4c1c7aa7cc90bec5061a49b04545992f7bfbb43e85290364736f6c63430008040033",
  "linkReferences": {},
  "deployedLinkReferences": {}
}