{
  "_format": "hh-sol-artifact-1",
  "contractName": "Tiramisu",
  "sourceName": "contracts/Tiramisu.sol",
  "abi": [
    {
      "inputs": [
        {
          "internalType": "string",
          "name": "baseURI",
          "type": "string"
        },
        {
          "internalType": "address[]",
          "name": "eligibleForPremintArr",
          "type": "address[]"
        }
      ],
      "stateMutability": "nonpayable",
      "type": "constructor"
    },
    {
      "anonymous": false,
      "inputs": [
        {
          "indexed": true,
          "internalType": "address",
          "name": "owner",
          "type": "address"
        },
        {
          "indexed": true,
          "internalType": "address",
          "name": "approved",
          "type": "address"
        },
        {
          "indexed": true,
          "internalType": "uint256",
          "name": "tokenId",
          "type": "uint256"
        }
      ],
      "name": "Approval",
      "type": "event"
    },
    {
      "anonymous": false,
      "inputs": [
        {
          "indexed": true,
          "internalType": "address",
          "name": "owner",
          "type": "address"
        },
        {
          "indexed": true,
          "internalType": "address",
          "name": "operator",
          "type": "address"
        },
        {
          "indexed": false,
          "internalType": "bool",
          "name": "approved",
          "type": "bool"
        }
      ],
      "name": "ApprovalForAll",
      "type": "event"
    },
    {
      "anonymous": false,
      "inputs": [
        {
          "indexed": true,
          "internalType": "address",
          "name": "previousOwner",
          "type": "address"
        },
        {
          "indexed": true,
          "internalType": "address",
          "name": "newOwner",
          "type": "address"
        }
      ],
      "name": "OwnershipTransferred",
      "type": "event"
    },
    {
      "anonymous": false,
      "inputs": [
        {
          "indexed": true,
          "internalType": "address",
          "name": "from",
          "type": "address"
        },
        {
          "indexed": true,
          "internalType": "address",
          "name": "to",
          "type": "address"
        },
        {
          "indexed": true,
          "internalType": "uint256",
          "name": "tokenId",
          "type": "uint256"
        }
      ],
      "name": "Transfer",
      "type": "event"
    },
    {
      "inputs": [],
      "name": "MAX_SUPPLY",
      "outputs": [
        {
          "internalType": "uint256",
          "name": "",
          "type": "uint256"
        }
      ],
      "stateMutability": "view",
      "type": "function"
    },
    {
      "inputs": [],
      "name": "PRICE",
      "outputs": [
        {
          "internalType": "uint256",
          "name": "",
          "type": "uint256"
        }
      ],
      "stateMutability": "view",
      "type": "function"
    },
    {
      "inputs": [
        {
          "internalType": "address",
          "name": "to",
          "type": "address"
        },
        {
          "internalType": "uint256",
          "name": "tokenId",
          "type": "uint256"
        }
      ],
      "name": "approve",
      "outputs": [],
      "stateMutability": "nonpayable",
      "type": "function"
    },
    {
      "inputs": [
        {
          "internalType": "address",
          "name": "owner",
          "type": "address"
        }
      ],
      "name": "balanceOf",
      "outputs": [
        {
          "internalType": "uint256",
          "name": "",
          "type": "uint256"
        }
      ],
      "stateMutability": "view",
      "type": "function"
    },
    {
      "inputs": [
        {
          "internalType": "uint256",
          "name": "tokenId",
          "type": "uint256"
        }
      ],
      "name": "getApproved",
      "outputs": [
        {
          "internalType": "address",
          "name": "",
          "type": "address"
        }
      ],
      "stateMutability": "view",
      "type": "function"
    },
    {
      "inputs": [],
      "name": "getTokensLeft",
      "outputs": [
        {
          "internalType": "uint256",
          "name": "",
          "type": "uint256"
        }
      ],
      "stateMutability": "view",
      "type": "function"
    },
    {
      "inputs": [],
      "name": "isAddressEligibleForPremint",
      "outputs": [
        {
          "internalType": "bool",
          "name": "",
          "type": "bool"
        }
      ],
      "stateMutability": "view",
      "type": "function"
    },
    {
      "inputs": [
        {
          "internalType": "address",
          "name": "owner",
          "type": "address"
        },
        {
          "internalType": "address",
          "name": "operator",
          "type": "address"
        }
      ],
      "name": "isApprovedForAll",
      "outputs": [
        {
          "internalType": "bool",
          "name": "",
          "type": "bool"
        }
      ],
      "stateMutability": "view",
      "type": "function"
    },
    {
      "inputs": [],
      "name": "isPremintPhase",
      "outputs": [
        {
          "internalType": "bool",
          "name": "",
          "type": "bool"
        }
      ],
      "stateMutability": "view",
      "type": "function"
    },
    {
      "inputs": [],
      "name": "mint",
      "outputs": [],
      "stateMutability": "payable",
      "type": "function"
    },
    {
      "inputs": [],
      "name": "name",
      "outputs": [
        {
          "internalType": "string",
          "name": "",
          "type": "string"
        }
      ],
      "stateMutability": "view",
      "type": "function"
    },
    {
      "inputs": [],
      "name": "owner",
      "outputs": [
        {
          "internalType": "address",
          "name": "",
          "type": "address"
        }
      ],
      "stateMutability": "view",
      "type": "function"
    },
    {
      "inputs": [
        {
          "internalType": "uint256",
          "name": "tokenId",
          "type": "uint256"
        }
      ],
      "name": "ownerOf",
      "outputs": [
        {
          "internalType": "address",
          "name": "",
          "type": "address"
        }
      ],
      "stateMutability": "view",
      "type": "function"
    },
    {
      "inputs": [],
      "name": "renounceOwnership",
      "outputs": [],
      "stateMutability": "nonpayable",
      "type": "function"
    },
    {
      "inputs": [
        {
          "internalType": "address",
          "name": "from",
          "type": "address"
        },
        {
          "internalType": "address",
          "name": "to",
          "type": "address"
        },
        {
          "internalType": "uint256",
          "name": "tokenId",
          "type": "uint256"
        }
      ],
      "name": "safeTransferFrom",
      "outputs": [],
      "stateMutability": "nonpayable",
      "type": "function"
    },
    {
      "inputs": [
        {
          "internalType": "address",
          "name": "from",
          "type": "address"
        },
        {
          "internalType": "address",
          "name": "to",
          "type": "address"
        },
        {
          "internalType": "uint256",
          "name": "tokenId",
          "type": "uint256"
        },
        {
          "internalType": "bytes",
          "name": "_data",
          "type": "bytes"
        }
      ],
      "name": "safeTransferFrom",
      "outputs": [],
      "stateMutability": "nonpayable",
      "type": "function"
    },
    {
      "inputs": [
        {
          "internalType": "address",
          "name": "operator",
          "type": "address"
        },
        {
          "internalType": "bool",
          "name": "approved",
          "type": "bool"
        }
      ],
      "name": "setApprovalForAll",
      "outputs": [],
      "stateMutability": "nonpayable",
      "type": "function"
    },
    {
      "inputs": [
        {
          "internalType": "string",
          "name": "baseURI",
          "type": "string"
        }
      ],
      "name": "setBaseURI",
      "outputs": [],
      "stateMutability": "nonpayable",
      "type": "function"
    },
    {
      "inputs": [
        {
          "internalType": "bool",
          "name": "_isPremintPhase",
          "type": "bool"
        }
      ],
      "name": "setIsPremintPhase",
      "outputs": [],
      "stateMutability": "nonpayable",
      "type": "function"
    },
    {
      "inputs": [
        {
          "internalType": "bytes4",
          "name": "interfaceId",
          "type": "bytes4"
        }
      ],
      "name": "supportsInterface",
      "outputs": [
        {
          "internalType": "bool",
          "name": "",
          "type": "bool"
        }
      ],
      "stateMutability": "view",
      "type": "function"
    },
    {
      "inputs": [],
      "name": "symbol",
      "outputs": [
        {
          "internalType": "string",
          "name": "",
          "type": "string"
        }
      ],
      "stateMutability": "view",
      "type": "function"
    },
    {
      "inputs": [
        {
          "internalType": "uint256",
          "name": "tokenId",
          "type": "uint256"
        }
      ],
      "name": "tokenURI",
      "outputs": [
        {
          "internalType": "string",
          "name": "",
          "type": "string"
        }
      ],
      "stateMutability": "view",
      "type": "function"
    },
    {
      "inputs": [
        {
          "internalType": "address",
          "name": "from",
          "type": "address"
        },
        {
          "internalType": "address",
          "name": "to",
          "type": "address"
        },
        {
          "internalType": "uint256",
          "name": "tokenId",
          "type": "uint256"
        }
      ],
      "name": "transferFrom",
      "outputs": [],
      "stateMutability": "nonpayable",
      "type": "function"
    },
    {
      "inputs": [
        {
          "internalType": "address",
          "name": "newOwner",
          "type": "address"
        }
      ],
      "name": "transferOwnership",
      "outputs": [],
      "stateMutability": "nonpayable",
      "type": "function"
    },
    {
      "inputs": [],
      "name": "withdraw",
      "outputs": [],
      "stateMutability": "nonpayable",
      "type": "function"
    }
  ],
  "bytecode": "0x60806040526001600960006101000a81548160ff0219169083151502179055503480156200002c57600080fd5b506040516200486438038062004864833981810160405281019062000052919062000a6b565b6040518060400160405280601981526020017f546972616d69737520526563697065206279205354494c4c5a000000000000008152506040518060400160405280600581526020017f544d4953550000000000000000000000000000000000000000000000000000008152508160009080519060200190620000d69291906200084d565b508060019080519060200190620000ef9291906200084d565b50505062000112620001066200027a60201b60201c565b6200028260201b60201c565b81600790805190602001906200012a9291906200084d565b5060005b8151811015620001e7576001600a600084848151811062000178577f4e487b7100000000000000000000000000000000000000000000000000000000600052603260045260246000fd5b602002602001015173ffffffffffffffffffffffffffffffffffffffff1673ffffffffffffffffffffffffffffffffffffffff16815260200190815260200160002060006101000a81548160ff0219169083151502179055508080620001de9062000e94565b9150506200012e565b5060006200020160086200034860201b6200147b1760201c565b905060005b600a8110156200027057620002437395645e9fcfee7882da368963d5a460308df24dd6828462000237919062000d2b565b6200035660201b60201c565b6200025a60086200037c60201b620014891760201c565b8080620002679062000e94565b91505062000206565b5050505062001055565b600033905090565b6000600660009054906101000a900473ffffffffffffffffffffffffffffffffffffffff16905081600660006101000a81548173ffffffffffffffffffffffffffffffffffffffff021916908373ffffffffffffffffffffffffffffffffffffffff1602179055508173ffffffffffffffffffffffffffffffffffffffff168173ffffffffffffffffffffffffffffffffffffffff167f8be0079c531659141344cd1fd0a4f28419497f9722a3daafe3b4186f6b6457e060405160405180910390a35050565b600081600001549050919050565b620003788282604051806020016040528060008152506200039260201b60201c565b5050565b6001816000016000828254019250508190555050565b620003a483836200040060201b60201c565b620003b96000848484620005fa60201b60201c565b620003fb576040517f08c379a0000000000000000000000000000000000000000000000000000000008152600401620003f29062000c0a565b60405180910390fd5b505050565b600073ffffffffffffffffffffffffffffffffffffffff168273ffffffffffffffffffffffffffffffffffffffff16141562000473576040517f08c379a00000000000000000000000000000000000000000000000000000000081526004016200046a9062000c4e565b60405180910390fd5b6200048481620007b460201b60201c565b15620004c7576040517f08c379a0000000000000000000000000000000000000000000000000000000008152600401620004be9062000c2c565b60405180910390fd5b620004db600083836200082060201b60201c565b6001600360008473ffffffffffffffffffffffffffffffffffffffff1673ffffffffffffffffffffffffffffffffffffffff16815260200190815260200160002060008282546200052d919062000d2b565b92505081905550816002600083815260200190815260200160002060006101000a81548173ffffffffffffffffffffffffffffffffffffffff021916908373ffffffffffffffffffffffffffffffffffffffff160217905550808273ffffffffffffffffffffffffffffffffffffffff16600073ffffffffffffffffffffffffffffffffffffffff167fddf252ad1be2c89b69c2b068fc378daa952ba7f163c4a11628f55a4df523b3ef60405160405180910390a4620005f6600083836200082560201b60201c565b5050565b6000620006288473ffffffffffffffffffffffffffffffffffffffff166200082a60201b6200149f1760201c565b15620007a7578373ffffffffffffffffffffffffffffffffffffffff1663150b7a026200065a6200027a60201b60201c565b8786866040518563ffffffff1660e01b81526004016200067e949392919062000bb6565b602060405180830381600087803b1580156200069957600080fd5b505af1925050508015620006cd57506040513d601f19601f82011682018060405250810190620006ca919062000a3f565b60015b62000756573d806000811462000700576040519150601f19603f3d011682016040523d82523d6000602084013e62000705565b606091505b506000815114156200074e576040517f08c379a0000000000000000000000000000000000000000000000000000000008152600401620007459062000c0a565b60405180910390fd5b805181602001fd5b63150b7a0260e01b7bffffffffffffffffffffffffffffffffffffffffffffffffffffffff1916817bffffffffffffffffffffffffffffffffffffffffffffffffffffffff191614915050620007ac565b600190505b949350505050565b60008073ffffffffffffffffffffffffffffffffffffffff166002600084815260200190815260200160002060009054906101000a900473ffffffffffffffffffffffffffffffffffffffff1673ffffffffffffffffffffffffffffffffffffffff1614159050919050565b505050565b505050565b6000808273ffffffffffffffffffffffffffffffffffffffff163b119050919050565b8280546200085b9062000e28565b90600052602060002090601f0160209004810192826200087f5760008555620008cb565b82601f106200089a57805160ff1916838001178555620008cb565b82800160010185558215620008cb579182015b82811115620008ca578251825591602001919060010190620008ad565b5b509050620008da9190620008de565b5090565b5b80821115620008f9576000816000905550600101620008df565b5090565b6000620009146200090e8462000c99565b62000c70565b905080838252602082019050828560208602820111156200093457600080fd5b60005b858110156200096857816200094d8882620009b7565b84526020840193506020830192505060018101905062000937565b5050509392505050565b600062000989620009838462000cc8565b62000c70565b905082815260208101848484011115620009a257600080fd5b620009af84828562000df2565b509392505050565b600081519050620009c88162001021565b92915050565b600082601f830112620009e057600080fd5b8151620009f2848260208601620008fd565b91505092915050565b60008151905062000a0c816200103b565b92915050565b600082601f83011262000a2457600080fd5b815162000a3684826020860162000972565b91505092915050565b60006020828403121562000a5257600080fd5b600062000a6284828501620009fb565b91505092915050565b6000806040838503121562000a7f57600080fd5b600083015167ffffffffffffffff81111562000a9a57600080fd5b62000aa88582860162000a12565b925050602083015167ffffffffffffffff81111562000ac657600080fd5b62000ad485828601620009ce565b9150509250929050565b62000ae98162000d88565b82525050565b600062000afc8262000cfe565b62000b08818562000d09565b935062000b1a81856020860162000df2565b62000b258162000f6f565b840191505092915050565b600062000b3f60328362000d1a565b915062000b4c8262000f80565b604082019050919050565b600062000b66601c8362000d1a565b915062000b738262000fcf565b602082019050919050565b600062000b8d60208362000d1a565b915062000b9a8262000ff8565b602082019050919050565b62000bb08162000de8565b82525050565b600060808201905062000bcd600083018762000ade565b62000bdc602083018662000ade565b62000beb604083018562000ba5565b818103606083015262000bff818462000aef565b905095945050505050565b6000602082019050818103600083015262000c258162000b30565b9050919050565b6000602082019050818103600083015262000c478162000b57565b9050919050565b6000602082019050818103600083015262000c698162000b7e565b9050919050565b600062000c7c62000c8f565b905062000c8a828262000e5e565b919050565b6000604051905090565b600067ffffffffffffffff82111562000cb75762000cb662000f40565b5b602082029050602081019050919050565b600067ffffffffffffffff82111562000ce65762000ce562000f40565b5b62000cf18262000f6f565b9050602081019050919050565b600081519050919050565b600082825260208201905092915050565b600082825260208201905092915050565b600062000d388262000de8565b915062000d458362000de8565b9250827fffffffffffffffffffffffffffffffffffffffffffffffffffffffffffffffff0382111562000d7d5762000d7c62000ee2565b5b828201905092915050565b600062000d958262000dc8565b9050919050565b60007fffffffff0000000000000000000000000000000000000000000000000000000082169050919050565b600073ffffffffffffffffffffffffffffffffffffffff82169050919050565b6000819050919050565b60005b8381101562000e1257808201518184015260208101905062000df5565b8381111562000e22576000848401525b50505050565b6000600282049050600182168062000e4157607f821691505b6020821081141562000e585762000e5762000f11565b5b50919050565b62000e698262000f6f565b810181811067ffffffffffffffff8211171562000e8b5762000e8a62000f40565b5b80604052505050565b600062000ea18262000de8565b91507fffffffffffffffffffffffffffffffffffffffffffffffffffffffffffffffff82141562000ed75762000ed662000ee2565b5b600182019050919050565b7f4e487b7100000000000000000000000000000000000000000000000000000000600052601160045260246000fd5b7f4e487b7100000000000000000000000000000000000000000000000000000000600052602260045260246000fd5b7f4e487b7100000000000000000000000000000000000000000000000000000000600052604160045260246000fd5b6000601f19601f8301169050919050565b7f4552433732313a207472616e7366657220746f206e6f6e20455243373231526560008201527f63656976657220696d706c656d656e7465720000000000000000000000000000602082015250565b7f4552433732313a20746f6b656e20616c7265616479206d696e74656400000000600082015250565b7f4552433732313a206d696e7420746f20746865207a65726f2061646472657373600082015250565b6200102c8162000d88565b81146200103857600080fd5b50565b620010468162000d9c565b81146200105257600080fd5b50565b6137ff80620010656000396000f3fe6080604052600436106101665760003560e01c80636352211e116100d157806395d89b411161008a578063c87b56dd11610064578063c87b56dd146104e3578063de5f986614610520578063e985e9c51461054b578063f2fde38b1461058857610166565b806395d89b4114610466578063a22cb46514610491578063b88d4fde146104ba57610166565b80636352211e1461035457806370a0823114610391578063715018a6146103ce57806382a81a50146103e55780638d859f3e146104105780638da5cb5b1461043b57610166565b806332cb6b0c1161012357806332cb6b0c1461026c57806337230ba2146102975780633ccfd60b146102c257806342842e0e146102d957806355f804b3146103025780635c9b75711461032b57610166565b806301ffc9a71461016b57806306fdde03146101a8578063081812fc146101d3578063095ea7b3146102105780631249c58b1461023957806323b872dd14610243575b600080fd5b34801561017757600080fd5b50610192600480360381019061018d919061260e565b6105b1565b60405161019f9190612b26565b60405180910390f35b3480156101b457600080fd5b506101bd610693565b6040516101ca9190612b41565b60405180910390f35b3480156101df57600080fd5b506101fa60048036038101906101f591906126a1565b610725565b6040516102079190612abf565b60405180910390f35b34801561021c57600080fd5b50610237600480360381019061023291906125a9565b6107aa565b005b6102416108c2565b005b34801561024f57600080fd5b5061026a600480360381019061026591906124a3565b610a2f565b005b34801561027857600080fd5b50610281610a8f565b60405161028e9190612de3565b60405180910390f35b3480156102a357600080fd5b506102ac610a95565b6040516102b99190612b26565b60405180910390f35b3480156102ce57600080fd5b506102d7610aac565b005b3480156102e557600080fd5b5061030060048036038101906102fb91906124a3565b610cc6565b005b34801561030e57600080fd5b5061032960048036038101906103249190612660565b610ce6565b005b34801561033757600080fd5b50610352600480360381019061034d91906125e5565b610d7c565b005b34801561036057600080fd5b5061037b600480360381019061037691906126a1565b610e15565b6040516103889190612abf565b60405180910390f35b34801561039d57600080fd5b506103b860048036038101906103b3919061243e565b610ec7565b6040516103c59190612de3565b60405180910390f35b3480156103da57600080fd5b506103e3610f7f565b005b3480156103f157600080fd5b506103fa611007565b6040516104079190612b26565b60405180910390f35b34801561041c57600080fd5b5061042561105b565b6040516104329190612de3565b60405180910390f35b34801561044757600080fd5b50610450611067565b60405161045d9190612abf565b60405180910390f35b34801561047257600080fd5b5061047b611091565b6040516104889190612b41565b60405180910390f35b34801561049d57600080fd5b506104b860048036038101906104b3919061256d565b611123565b005b3480156104c657600080fd5b506104e160048036038101906104dc91906124f2565b611139565b005b3480156104ef57600080fd5b5061050a600480360381019061050591906126a1565b61119b565b6040516105179190612b41565b60405180910390f35b34801561052c57600080fd5b50610535611302565b6040516105429190612de3565b60405180910390f35b34801561055757600080fd5b50610572600480360381019061056d9190612467565b611320565b60405161057f9190612b26565b60405180910390f35b34801561059457600080fd5b506105af60048036038101906105aa919061243e565b611383565b005b60007f80ac58cd000000000000000000000000000000000000000000000000000000007bffffffffffffffffffffffffffffffffffffffffffffffffffffffff1916827bffffffffffffffffffffffffffffffffffffffffffffffffffffffff1916148061067c57507f5b5e139f000000000000000000000000000000000000000000000000000000007bffffffffffffffffffffffffffffffffffffffffffffffffffffffff1916827bffffffffffffffffffffffffffffffffffffffffffffffffffffffff1916145b8061068c575061068b826114c2565b5b9050919050565b6060600080546106a29061309e565b80601f01602080910402602001604051908101604052809291908181526020018280546106ce9061309e565b801561071b5780601f106106f05761010080835404028352916020019161071b565b820191906000526020600020905b8154815290600101906020018083116106fe57829003601f168201915b5050505050905090565b60006107308261152c565b61076f576040517f08c379a000000000000000000000000000000000000000000000000000000000815260040161076690612d03565b60405180910390fd5b6004600083815260200190815260200160002060009054906101000a900473ffffffffffffffffffffffffffffffffffffffff169050919050565b60006107b582610e15565b90508073ffffffffffffffffffffffffffffffffffffffff168373ffffffffffffffffffffffffffffffffffffffff161415610826576040517f08c379a000000000000000000000000000000000000000000000000000000000815260040161081d90612d63565b60405180910390fd5b8073ffffffffffffffffffffffffffffffffffffffff16610845611598565b73ffffffffffffffffffffffffffffffffffffffff16148061087457506108738161086e611598565b611320565b5b6108b3576040517f08c379a00000000000000000000000000000000000000000000000000000000081526004016108aa90612c83565b60405180910390fd5b6108bd83836115a0565b505050565b600960009054906101000a900460ff1615610923576108df611007565b61091e576040517f08c379a000000000000000000000000000000000000000000000000000000000815260040161091590612d83565b60405180910390fd5b61096e565b67016345785d8a0000341461096d576040517f08c379a000000000000000000000000000000000000000000000000000000000815260040161096490612c03565b60405180910390fd5b5b600061097a600861147b565b90506103e881106109c0576040517f08c379a00000000000000000000000000000000000000000000000000000000081526004016109b790612b63565b60405180910390fd5b6109ca3382611659565b6109d46008611489565b6000600a60003373ffffffffffffffffffffffffffffffffffffffff1673ffffffffffffffffffffffffffffffffffffffff16815260200190815260200160002060006101000a81548160ff02191690831515021790555050565b610a40610a3a611598565b82611677565b610a7f576040517f08c379a0000000000000000000000000000000000000000000000000000000008152600401610a7690612da3565b60405180910390fd5b610a8a838383611755565b505050565b6103e881565b6000600960009054906101000a900460ff16905090565b610ab4611598565b73ffffffffffffffffffffffffffffffffffffffff16610ad2611067565b73ffffffffffffffffffffffffffffffffffffffff1614610b28576040517f08c379a0000000000000000000000000000000000000000000000000000000008152600401610b1f90612d23565b60405180910390fd5b600047905060008111610b3a57600080fd5b60007395645e9fcfee7882da368963d5a460308df24dd673ffffffffffffffffffffffffffffffffffffffff16600a600884610b769190612f5a565b610b809190612f29565b604051610b8c90612aaa565b60006040518083038185875af1925050503d8060008114610bc9576040519150601f19603f3d011682016040523d82523d6000602084013e610bce565b606091505b50509050600073705a47ebc6fce487a3c64a2da64ce2e3b8b2ef5573ffffffffffffffffffffffffffffffffffffffff16600a600285610c0e9190612f5a565b610c189190612f29565b604051610c2490612aaa565b60006040518083038185875af1925050503d8060008114610c61576040519150601f19603f3d011682016040523d82523d6000602084013e610c66565b606091505b5050905060011515821515148015610c82575060011515811515145b610cc1576040517f08c379a0000000000000000000000000000000000000000000000000000000008152600401610cb890612dc3565b60405180910390fd5b505050565b610ce183838360405180602001604052806000815250611139565b505050565b610cee611598565b73ffffffffffffffffffffffffffffffffffffffff16610d0c611067565b73ffffffffffffffffffffffffffffffffffffffff1614610d62576040517f08c379a0000000000000000000000000000000000000000000000000000000008152600401610d5990612d23565b60405180910390fd5b8060079080519060200190610d78929190612262565b5050565b610d84611598565b73ffffffffffffffffffffffffffffffffffffffff16610da2611067565b73ffffffffffffffffffffffffffffffffffffffff1614610df8576040517f08c379a0000000000000000000000000000000000000000000000000000000008152600401610def90612d23565b60405180910390fd5b80600960006101000a81548160ff02191690831515021790555050565b6000806002600084815260200190815260200160002060009054906101000a900473ffffffffffffffffffffffffffffffffffffffff169050600073ffffffffffffffffffffffffffffffffffffffff168173ffffffffffffffffffffffffffffffffffffffff161415610ebe576040517f08c379a0000000000000000000000000000000000000000000000000000000008152600401610eb590612cc3565b60405180910390fd5b80915050919050565b60008073ffffffffffffffffffffffffffffffffffffffff168273ffffffffffffffffffffffffffffffffffffffff161415610f38576040517f08c379a0000000000000000000000000000000000000000000000000000000008152600401610f2f90612ca3565b60405180910390fd5b600360008373ffffffffffffffffffffffffffffffffffffffff1673ffffffffffffffffffffffffffffffffffffffff168152602001908152602001600020549050919050565b610f87611598565b73ffffffffffffffffffffffffffffffffffffffff16610fa5611067565b73ffffffffffffffffffffffffffffffffffffffff1614610ffb576040517f08c379a0000000000000000000000000000000000000000000000000000000008152600401610ff290612d23565b60405180910390fd5b61100560006119bc565b565b6000600a60003373ffffffffffffffffffffffffffffffffffffffff1673ffffffffffffffffffffffffffffffffffffffff16815260200190815260200160002060009054906101000a900460ff16905090565b67016345785d8a000081565b6000600660009054906101000a900473ffffffffffffffffffffffffffffffffffffffff16905090565b6060600180546110a09061309e565b80601f01602080910402602001604051908101604052809291908181526020018280546110cc9061309e565b80156111195780601f106110ee57610100808354040283529160200191611119565b820191906000526020600020905b8154815290600101906020018083116110fc57829003601f168201915b5050505050905090565b61113561112e611598565b8383611a82565b5050565b61114a611144611598565b83611677565b611189576040517f08c379a000000000000000000000000000000000000000000000000000000000815260040161118090612da3565b60405180910390fd5b61119584848484611bef565b50505050565b60606111a68261152c565b6111e5576040517f08c379a00000000000000000000000000000000000000000000000000000000081526004016111dc90612d43565b60405180910390fd5b60006040518060400160405280600581526020017f2e6a736f6e000000000000000000000000000000000000000000000000000000815250905060006007805461122e9061309e565b80601f016020809104026020016040519081016040528092919081815260200182805461125a9061309e565b80156112a75780601f1061127c576101008083540402835291602001916112a7565b820191906000526020600020905b81548152906001019060200180831161128a57829003601f168201915b5050505050905060008151116112cc57604051806020016040528060008152506112f9565b806112d685611c4b565b836040516020016112e993929190612a79565b6040516020818303038152906040525b92505050919050565b600061130e600861147b565b6103e861131b9190612fb4565b905090565b6000737be8076f4ea4a4ad08075c2508e481d6c946d12b73ffffffffffffffffffffffffffffffffffffffff168273ffffffffffffffffffffffffffffffffffffffff1614611378576113738383611df8565b61137b565b60015b905092915050565b61138b611598565b73ffffffffffffffffffffffffffffffffffffffff166113a9611067565b73ffffffffffffffffffffffffffffffffffffffff16146113ff576040517f08c379a00000000000000000000000000000000000000000000000000000000081526004016113f690612d23565b60405180910390fd5b600073ffffffffffffffffffffffffffffffffffffffff168173ffffffffffffffffffffffffffffffffffffffff16141561146f576040517f08c379a000000000000000000000000000000000000000000000000000000000815260040161146690612ba3565b60405180910390fd5b611478816119bc565b50565b600081600001549050919050565b6001816000016000828254019250508190555050565b6000808273ffffffffffffffffffffffffffffffffffffffff163b119050919050565b60007f01ffc9a7000000000000000000000000000000000000000000000000000000007bffffffffffffffffffffffffffffffffffffffffffffffffffffffff1916827bffffffffffffffffffffffffffffffffffffffffffffffffffffffff1916149050919050565b60008073ffffffffffffffffffffffffffffffffffffffff166002600084815260200190815260200160002060009054906101000a900473ffffffffffffffffffffffffffffffffffffffff1673ffffffffffffffffffffffffffffffffffffffff1614159050919050565b600033905090565b816004600083815260200190815260200160002060006101000a81548173ffffffffffffffffffffffffffffffffffffffff021916908373ffffffffffffffffffffffffffffffffffffffff160217905550808273ffffffffffffffffffffffffffffffffffffffff1661161383610e15565b73ffffffffffffffffffffffffffffffffffffffff167f8c5be1e5ebec7d5bd14f71427d1e84f3dd0314c0f7b2291e5b200ac8c7c3b92560405160405180910390a45050565b611673828260405180602001604052806000815250611e8c565b5050565b60006116828261152c565b6116c1576040517f08c379a00000000000000000000000000000000000000000000000000000000081526004016116b890612c63565b60405180910390fd5b60006116cc83610e15565b90508073ffffffffffffffffffffffffffffffffffffffff168473ffffffffffffffffffffffffffffffffffffffff16148061173b57508373ffffffffffffffffffffffffffffffffffffffff1661172384610725565b73ffffffffffffffffffffffffffffffffffffffff16145b8061174c575061174b8185611320565b5b91505092915050565b8273ffffffffffffffffffffffffffffffffffffffff1661177582610e15565b73ffffffffffffffffffffffffffffffffffffffff16146117cb576040517f08c379a00000000000000000000000000000000000000000000000000000000081526004016117c290612bc3565b60405180910390fd5b600073ffffffffffffffffffffffffffffffffffffffff168273ffffffffffffffffffffffffffffffffffffffff16141561183b576040517f08c379a000000000000000000000000000000000000000000000000000000000815260040161183290612c23565b60405180910390fd5b611846838383611ee7565b6118516000826115a0565b6001600360008573ffffffffffffffffffffffffffffffffffffffff1673ffffffffffffffffffffffffffffffffffffffff16815260200190815260200160002060008282546118a19190612fb4565b925050819055506001600360008473ffffffffffffffffffffffffffffffffffffffff1673ffffffffffffffffffffffffffffffffffffffff16815260200190815260200160002060008282546118f89190612ed3565b92505081905550816002600083815260200190815260200160002060006101000a81548173ffffffffffffffffffffffffffffffffffffffff021916908373ffffffffffffffffffffffffffffffffffffffff160217905550808273ffffffffffffffffffffffffffffffffffffffff168473ffffffffffffffffffffffffffffffffffffffff167fddf252ad1be2c89b69c2b068fc378daa952ba7f163c4a11628f55a4df523b3ef60405160405180910390a46119b7838383611eec565b505050565b6000600660009054906101000a900473ffffffffffffffffffffffffffffffffffffffff16905081600660006101000a81548173ffffffffffffffffffffffffffffffffffffffff021916908373ffffffffffffffffffffffffffffffffffffffff1602179055508173ffffffffffffffffffffffffffffffffffffffff168173ffffffffffffffffffffffffffffffffffffffff167f8be0079c531659141344cd1fd0a4f28419497f9722a3daafe3b4186f6b6457e060405160405180910390a35050565b8173ffffffffffffffffffffffffffffffffffffffff168373ffffffffffffffffffffffffffffffffffffffff161415611af1576040517f08c379a0000000000000000000000000000000000000000000000000000000008152600401611ae890612c43565b60405180910390fd5b80600560008573ffffffffffffffffffffffffffffffffffffffff1673ffffffffffffffffffffffffffffffffffffffff16815260200190815260200160002060008473ffffffffffffffffffffffffffffffffffffffff1673ffffffffffffffffffffffffffffffffffffffff16815260200190815260200160002060006101000a81548160ff0219169083151502179055508173ffffffffffffffffffffffffffffffffffffffff168373ffffffffffffffffffffffffffffffffffffffff167f17307eab39ab6107e8899845ad3d59bd9653f200f220920489ca2b5937696c3183604051611be29190612b26565b60405180910390a3505050565b611bfa848484611755565b611c0684848484611ef1565b611c45576040517f08c379a0000000000000000000000000000000000000000000000000000000008152600401611c3c90612b83565b60405180910390fd5b50505050565b60606000821415611c93576040518060400160405280600181526020017f30000000000000000000000000000000000000000000000000000000000000008152509050611df3565b600082905060005b60008214611cc5578080611cae90613101565b915050600a82611cbe9190612f29565b9150611c9b565b60008167ffffffffffffffff811115611d07577f4e487b7100000000000000000000000000000000000000000000000000000000600052604160045260246000fd5b6040519080825280601f01601f191660200182016040528015611d395781602001600182028036833780820191505090505b5090505b60008514611dec57600182611d529190612fb4565b9150600a85611d61919061314a565b6030611d6d9190612ed3565b60f81b818381518110611da9577f4e487b7100000000000000000000000000000000000000000000000000000000600052603260045260246000fd5b60200101907effffffffffffffffffffffffffffffffffffffffffffffffffffffffffffff1916908160001a905350600a85611de59190612f29565b9450611d3d565b8093505050505b919050565b6000600560008473ffffffffffffffffffffffffffffffffffffffff1673ffffffffffffffffffffffffffffffffffffffff16815260200190815260200160002060008373ffffffffffffffffffffffffffffffffffffffff1673ffffffffffffffffffffffffffffffffffffffff16815260200190815260200160002060009054906101000a900460ff16905092915050565b611e968383612088565b611ea36000848484611ef1565b611ee2576040517f08c379a0000000000000000000000000000000000000000000000000000000008152600401611ed990612b83565b60405180910390fd5b505050565b505050565b505050565b6000611f128473ffffffffffffffffffffffffffffffffffffffff1661149f565b1561207b578373ffffffffffffffffffffffffffffffffffffffff1663150b7a02611f3b611598565b8786866040518563ffffffff1660e01b8152600401611f5d9493929190612ada565b602060405180830381600087803b158015611f7757600080fd5b505af1925050508015611fa857506040513d601f19601f82011682018060405250810190611fa59190612637565b60015b61202b573d8060008114611fd8576040519150601f19603f3d011682016040523d82523d6000602084013e611fdd565b606091505b50600081511415612023576040517f08c379a000000000000000000000000000000000000000000000000000000000815260040161201a90612b83565b60405180910390fd5b805181602001fd5b63150b7a0260e01b7bffffffffffffffffffffffffffffffffffffffffffffffffffffffff1916817bffffffffffffffffffffffffffffffffffffffffffffffffffffffff191614915050612080565b600190505b949350505050565b600073ffffffffffffffffffffffffffffffffffffffff168273ffffffffffffffffffffffffffffffffffffffff1614156120f8576040517f08c379a00000000000000000000000000000000000000000000000000000000081526004016120ef90612ce3565b60405180910390fd5b6121018161152c565b15612141576040517f08c379a000000000000000000000000000000000000000000000000000000000815260040161213890612be3565b60405180910390fd5b61214d60008383611ee7565b6001600360008473ffffffffffffffffffffffffffffffffffffffff1673ffffffffffffffffffffffffffffffffffffffff168152602001908152602001600020600082825461219d9190612ed3565b92505081905550816002600083815260200190815260200160002060006101000a81548173ffffffffffffffffffffffffffffffffffffffff021916908373ffffffffffffffffffffffffffffffffffffffff160217905550808273ffffffffffffffffffffffffffffffffffffffff16600073ffffffffffffffffffffffffffffffffffffffff167fddf252ad1be2c89b69c2b068fc378daa952ba7f163c4a11628f55a4df523b3ef60405160405180910390a461225e60008383611eec565b5050565b82805461226e9061309e565b90600052602060002090601f01602090048101928261229057600085556122d7565b82601f106122a957805160ff19168380011785556122d7565b828001600101855582156122d7579182015b828111156122d65782518255916020019190600101906122bb565b5b5090506122e491906122e8565b5090565b5b808211156123015760008160009055506001016122e9565b5090565b600061231861231384612e23565b612dfe565b90508281526020810184848401111561233057600080fd5b61233b84828561305c565b509392505050565b600061235661235184612e54565b612dfe565b90508281526020810184848401111561236e57600080fd5b61237984828561305c565b509392505050565b6000813590506123908161376d565b92915050565b6000813590506123a581613784565b92915050565b6000813590506123ba8161379b565b92915050565b6000815190506123cf8161379b565b92915050565b600082601f8301126123e657600080fd5b81356123f6848260208601612305565b91505092915050565b600082601f83011261241057600080fd5b8135612420848260208601612343565b91505092915050565b600081359050612438816137b2565b92915050565b60006020828403121561245057600080fd5b600061245e84828501612381565b91505092915050565b6000806040838503121561247a57600080fd5b600061248885828601612381565b925050602061249985828601612381565b9150509250929050565b6000806000606084860312156124b857600080fd5b60006124c686828701612381565b93505060206124d786828701612381565b92505060406124e886828701612429565b9150509250925092565b6000806000806080858703121561250857600080fd5b600061251687828801612381565b945050602061252787828801612381565b935050604061253887828801612429565b925050606085013567ffffffffffffffff81111561255557600080fd5b612561878288016123d5565b91505092959194509250565b6000806040838503121561258057600080fd5b600061258e85828601612381565b925050602061259f85828601612396565b9150509250929050565b600080604083850312156125bc57600080fd5b60006125ca85828601612381565b92505060206125db85828601612429565b9150509250929050565b6000602082840312156125f757600080fd5b600061260584828501612396565b91505092915050565b60006020828403121561262057600080fd5b600061262e848285016123ab565b91505092915050565b60006020828403121561264957600080fd5b6000612657848285016123c0565b91505092915050565b60006020828403121561267257600080fd5b600082013567ffffffffffffffff81111561268c57600080fd5b612698848285016123ff565b91505092915050565b6000602082840312156126b357600080fd5b60006126c184828501612429565b91505092915050565b6126d381612fe8565b82525050565b6126e281612ffa565b82525050565b60006126f382612e85565b6126fd8185612e9b565b935061270d81856020860161306b565b61271681613237565b840191505092915050565b600061272c82612e90565b6127368185612eb7565b935061274681856020860161306b565b61274f81613237565b840191505092915050565b600061276582612e90565b61276f8185612ec8565b935061277f81856020860161306b565b80840191505092915050565b6000612798601483612eb7565b91506127a382613248565b602082019050919050565b60006127bb603283612eb7565b91506127c682613271565b604082019050919050565b60006127de602683612eb7565b91506127e9826132c0565b604082019050919050565b6000612801602583612eb7565b915061280c8261330f565b604082019050919050565b6000612824601c83612eb7565b915061282f8261335e565b602082019050919050565b6000612847601f83612eb7565b915061285282613387565b602082019050919050565b600061286a602483612eb7565b9150612875826133b0565b604082019050919050565b600061288d601983612eb7565b9150612898826133ff565b602082019050919050565b60006128b0602c83612eb7565b91506128bb82613428565b604082019050919050565b60006128d3603883612eb7565b91506128de82613477565b604082019050919050565b60006128f6602a83612eb7565b9150612901826134c6565b604082019050919050565b6000612919602983612eb7565b915061292482613515565b604082019050919050565b600061293c602083612eb7565b915061294782613564565b602082019050919050565b600061295f602c83612eb7565b915061296a8261358d565b604082019050919050565b6000612982602083612eb7565b915061298d826135dc565b602082019050919050565b60006129a5602f83612eb7565b91506129b082613605565b604082019050919050565b60006129c8602183612eb7565b91506129d382613654565b604082019050919050565b60006129eb600083612eac565b91506129f6826136a3565b600082019050919050565b6000612a0e602183612eb7565b9150612a19826136a6565b604082019050919050565b6000612a31603183612eb7565b9150612a3c826136f5565b604082019050919050565b6000612a54600f83612eb7565b9150612a5f82613744565b602082019050919050565b612a7381613052565b82525050565b6000612a85828661275a565b9150612a91828561275a565b9150612a9d828461275a565b9150819050949350505050565b6000612ab5826129de565b9150819050919050565b6000602082019050612ad460008301846126ca565b92915050565b6000608082019050612aef60008301876126ca565b612afc60208301866126ca565b612b096040830185612a6a565b8181036060830152612b1b81846126e8565b905095945050505050565b6000602082019050612b3b60008301846126d9565b92915050565b60006020820190508181036000830152612b5b8184612721565b905092915050565b60006020820190508181036000830152612b7c8161278b565b9050919050565b60006020820190508181036000830152612b9c816127ae565b9050919050565b60006020820190508181036000830152612bbc816127d1565b9050919050565b60006020820190508181036000830152612bdc816127f4565b9050919050565b60006020820190508181036000830152612bfc81612817565b9050919050565b60006020820190508181036000830152612c1c8161283a565b9050919050565b60006020820190508181036000830152612c3c8161285d565b9050919050565b60006020820190508181036000830152612c5c81612880565b9050919050565b60006020820190508181036000830152612c7c816128a3565b9050919050565b60006020820190508181036000830152612c9c816128c6565b9050919050565b60006020820190508181036000830152612cbc816128e9565b9050919050565b60006020820190508181036000830152612cdc8161290c565b9050919050565b60006020820190508181036000830152612cfc8161292f565b9050919050565b60006020820190508181036000830152612d1c81612952565b9050919050565b60006020820190508181036000830152612d3c81612975565b9050919050565b60006020820190508181036000830152612d5c81612998565b9050919050565b60006020820190508181036000830152612d7c816129bb565b9050919050565b60006020820190508181036000830152612d9c81612a01565b9050919050565b60006020820190508181036000830152612dbc81612a24565b9050919050565b60006020820190508181036000830152612ddc81612a47565b9050919050565b6000602082019050612df86000830184612a6a565b92915050565b6000612e08612e19565b9050612e1482826130d0565b919050565b6000604051905090565b600067ffffffffffffffff821115612e3e57612e3d613208565b5b612e4782613237565b9050602081019050919050565b600067ffffffffffffffff821115612e6f57612e6e613208565b5b612e7882613237565b9050602081019050919050565b600081519050919050565b600081519050919050565b600082825260208201905092915050565b600081905092915050565b600082825260208201905092915050565b600081905092915050565b6000612ede82613052565b9150612ee983613052565b9250827fffffffffffffffffffffffffffffffffffffffffffffffffffffffffffffffff03821115612f1e57612f1d61317b565b5b828201905092915050565b6000612f3482613052565b9150612f3f83613052565b925082612f4f57612f4e6131aa565b5b828204905092915050565b6000612f6582613052565b9150612f7083613052565b9250817fffffffffffffffffffffffffffffffffffffffffffffffffffffffffffffffff0483118215151615612fa957612fa861317b565b5b828202905092915050565b6000612fbf82613052565b9150612fca83613052565b925082821015612fdd57612fdc61317b565b5b828203905092915050565b6000612ff382613032565b9050919050565b60008115159050919050565b60007fffffffff0000000000000000000000000000000000000000000000000000000082169050919050565b600073ffffffffffffffffffffffffffffffffffffffff82169050919050565b6000819050919050565b82818337600083830152505050565b60005b8381101561308957808201518184015260208101905061306e565b83811115613098576000848401525b50505050565b600060028204905060018216806130b657607f821691505b602082108114156130ca576130c96131d9565b5b50919050565b6130d982613237565b810181811067ffffffffffffffff821117156130f8576130f7613208565b5b80604052505050565b600061310c82613052565b91507fffffffffffffffffffffffffffffffffffffffffffffffffffffffffffffffff82141561313f5761313e61317b565b5b600182019050919050565b600061315582613052565b915061316083613052565b9250826131705761316f6131aa565b5b828206905092915050565b7f4e487b7100000000000000000000000000000000000000000000000000000000600052601160045260246000fd5b7f4e487b7100000000000000000000000000000000000000000000000000000000600052601260045260246000fd5b7f4e487b7100000000000000000000000000000000000000000000000000000000600052602260045260246000fd5b7f4e487b7100000000000000000000000000000000000000000000000000000000600052604160045260246000fd5b6000601f19601f8301169050919050565b7f6578636565647320746f6b656e20737570706c79000000000000000000000000600082015250565b7f4552433732313a207472616e7366657220746f206e6f6e20455243373231526560008201527f63656976657220696d706c656d656e7465720000000000000000000000000000602082015250565b7f4f776e61626c653a206e6577206f776e657220697320746865207a65726f206160008201527f6464726573730000000000000000000000000000000000000000000000000000602082015250565b7f4552433732313a207472616e736665722066726f6d20696e636f72726563742060008201527f6f776e6572000000000000000000000000000000000000000000000000000000602082015250565b7f4552433732313a20746f6b656e20616c7265616479206d696e74656400000000600082015250565b7f696e636f727265637420657468657220616d6f756e7420737570706c69656400600082015250565b7f4552433732313a207472616e7366657220746f20746865207a65726f2061646460008201527f7265737300000000000000000000000000000000000000000000000000000000602082015250565b7f4552433732313a20617070726f766520746f2063616c6c657200000000000000600082015250565b7f4552433732313a206f70657261746f7220717565727920666f72206e6f6e657860008201527f697374656e7420746f6b656e0000000000000000000000000000000000000000602082015250565b7f4552433732313a20617070726f76652063616c6c6572206973206e6f74206f7760008201527f6e6572206e6f7220617070726f76656420666f7220616c6c0000000000000000602082015250565b7f4552433732313a2062616c616e636520717565727920666f7220746865207a6560008201527f726f206164647265737300000000000000000000000000000000000000000000602082015250565b7f4552433732313a206f776e657220717565727920666f72206e6f6e657869737460008201527f656e7420746f6b656e0000000000000000000000000000000000000000000000602082015250565b7f4552433732313a206d696e7420746f20746865207a65726f2061646472657373600082015250565b7f4552433732313a20617070726f76656420717565727920666f72206e6f6e657860008201527f697374656e7420746f6b656e0000000000000000000000000000000000000000602082015250565b7f4f776e61626c653a2063616c6c6572206973206e6f7420746865206f776e6572600082015250565b7f4552433732314d657461646174613a2055524920717565727920666f72206e6f60008201527f6e6578697374656e7420746f6b656e0000000000000000000000000000000000602082015250565b7f4552433732313a20617070726f76616c20746f2063757272656e74206f776e6560008201527f7200000000000000000000000000000000000000000000000000000000000000602082015250565b50565b7f6164647265737320696e656c696769626c6520666f72207072656d696e74696e60008201527f6700000000000000000000000000000000000000000000000000000000000000602082015250565b7f4552433732313a207472616e736665722063616c6c6572206973206e6f74206f60008201527f776e6572206e6f7220617070726f766564000000000000000000000000000000602082015250565b7f7769746864726177206661696c65640000000000000000000000000000000000600082015250565b61377681612fe8565b811461378157600080fd5b50565b61378d81612ffa565b811461379857600080fd5b50565b6137a481613006565b81146137af57600080fd5b50565b6137bb81613052565b81146137c657600080fd5b5056fea264697066735822122044b9c90000461bd8a5f78996b2373a4ace93c9cd1c92f441b5860eac4b18f57664736f6c63430008040033",
  "linkReferences": {},
  "deployedLinkReferences": {}
}