{
  "_format": "hh-sol-artifact-1",
  "contractName": "Tiramisu",
  "sourceName": "contracts/Tiramisu.sol",
  "abi": [
    {
      "inputs": [
        {
          "internalType": "string",
          "name": "baseURI",
          "type": "string"
        },
        {
          "internalType": "bytes32",
          "name": "initialRoot",
          "type": "bytes32"
        }
      ],
      "stateMutability": "nonpayable",
      "type": "constructor"
    },
    {
      "anonymous": false,
      "inputs": [
        {
          "indexed": true,
          "internalType": "address",
          "name": "owner",
          "type": "address"
        },
        {
          "indexed": true,
          "internalType": "address",
          "name": "approved",
          "type": "address"
        },
        {
          "indexed": true,
          "internalType": "uint256",
          "name": "tokenId",
          "type": "uint256"
        }
      ],
      "name": "Approval",
      "type": "event"
    },
    {
      "anonymous": false,
      "inputs": [
        {
          "indexed": true,
          "internalType": "address",
          "name": "owner",
          "type": "address"
        },
        {
          "indexed": true,
          "internalType": "address",
          "name": "operator",
          "type": "address"
        },
        {
          "indexed": false,
          "internalType": "bool",
          "name": "approved",
          "type": "bool"
        }
      ],
      "name": "ApprovalForAll",
      "type": "event"
    },
    {
      "anonymous": false,
      "inputs": [
        {
          "indexed": true,
          "internalType": "address",
          "name": "previousOwner",
          "type": "address"
        },
        {
          "indexed": true,
          "internalType": "address",
          "name": "newOwner",
          "type": "address"
        }
      ],
      "name": "OwnershipTransferred",
      "type": "event"
    },
    {
      "anonymous": false,
      "inputs": [
        {
          "indexed": true,
          "internalType": "address",
          "name": "from",
          "type": "address"
        },
        {
          "indexed": true,
          "internalType": "address",
          "name": "to",
          "type": "address"
        },
        {
          "indexed": true,
          "internalType": "uint256",
          "name": "tokenId",
          "type": "uint256"
        }
      ],
      "name": "Transfer",
      "type": "event"
    },
    {
      "inputs": [],
      "name": "MAX_SUPPLY",
      "outputs": [
        {
          "internalType": "uint16",
          "name": "",
          "type": "uint16"
        }
      ],
      "stateMutability": "view",
      "type": "function"
    },
    {
      "inputs": [],
      "name": "PRICE",
      "outputs": [
        {
          "internalType": "uint64",
          "name": "",
          "type": "uint64"
        }
      ],
      "stateMutability": "view",
      "type": "function"
    },
    {
      "inputs": [
        {
          "internalType": "address",
          "name": "to",
          "type": "address"
        },
        {
          "internalType": "uint256",
          "name": "tokenId",
          "type": "uint256"
        }
      ],
      "name": "approve",
      "outputs": [],
      "stateMutability": "nonpayable",
      "type": "function"
    },
    {
      "inputs": [
        {
          "internalType": "address",
          "name": "owner",
          "type": "address"
        }
      ],
      "name": "balanceOf",
      "outputs": [
        {
          "internalType": "uint256",
          "name": "",
          "type": "uint256"
        }
      ],
      "stateMutability": "view",
      "type": "function"
    },
    {
      "inputs": [
        {
          "internalType": "uint256",
          "name": "tokenId",
          "type": "uint256"
        }
      ],
      "name": "getApproved",
      "outputs": [
        {
          "internalType": "address",
          "name": "",
          "type": "address"
        }
      ],
      "stateMutability": "view",
      "type": "function"
    },
    {
      "inputs": [],
      "name": "getTokensLeft",
      "outputs": [
        {
          "internalType": "uint16",
          "name": "",
          "type": "uint16"
        }
      ],
      "stateMutability": "view",
      "type": "function"
    },
    {
      "inputs": [
        {
          "internalType": "address",
          "name": "owner",
          "type": "address"
        },
        {
          "internalType": "address",
          "name": "operator",
          "type": "address"
        }
      ],
      "name": "isApprovedForAll",
      "outputs": [
        {
          "internalType": "bool",
          "name": "",
          "type": "bool"
        }
      ],
      "stateMutability": "view",
      "type": "function"
    },
    {
      "inputs": [],
      "name": "isPremintPhase",
      "outputs": [
        {
          "internalType": "bool",
          "name": "",
          "type": "bool"
        }
      ],
      "stateMutability": "view",
      "type": "function"
    },
    {
      "inputs": [],
      "name": "mint",
      "outputs": [],
      "stateMutability": "payable",
      "type": "function"
    },
    {
      "inputs": [],
      "name": "name",
      "outputs": [
        {
          "internalType": "string",
          "name": "",
          "type": "string"
        }
      ],
      "stateMutability": "view",
      "type": "function"
    },
    {
      "inputs": [],
      "name": "owner",
      "outputs": [
        {
          "internalType": "address",
          "name": "",
          "type": "address"
        }
      ],
      "stateMutability": "view",
      "type": "function"
    },
    {
      "inputs": [
        {
          "internalType": "uint256",
          "name": "tokenId",
          "type": "uint256"
        }
      ],
      "name": "ownerOf",
      "outputs": [
        {
          "internalType": "address",
          "name": "",
          "type": "address"
        }
      ],
      "stateMutability": "view",
      "type": "function"
    },
    {
      "inputs": [
        {
          "internalType": "bytes32[]",
          "name": "proof",
          "type": "bytes32[]"
        }
      ],
      "name": "redeem",
      "outputs": [],
      "stateMutability": "nonpayable",
      "type": "function"
    },
    {
      "inputs": [],
      "name": "renounceOwnership",
      "outputs": [],
      "stateMutability": "nonpayable",
      "type": "function"
    },
    {
      "inputs": [
        {
          "internalType": "address",
          "name": "from",
          "type": "address"
        },
        {
          "internalType": "address",
          "name": "to",
          "type": "address"
        },
        {
          "internalType": "uint256",
          "name": "tokenId",
          "type": "uint256"
        }
      ],
      "name": "safeTransferFrom",
      "outputs": [],
      "stateMutability": "nonpayable",
      "type": "function"
    },
    {
      "inputs": [
        {
          "internalType": "address",
          "name": "from",
          "type": "address"
        },
        {
          "internalType": "address",
          "name": "to",
          "type": "address"
        },
        {
          "internalType": "uint256",
          "name": "tokenId",
          "type": "uint256"
        },
        {
          "internalType": "bytes",
          "name": "_data",
          "type": "bytes"
        }
      ],
      "name": "safeTransferFrom",
      "outputs": [],
      "stateMutability": "nonpayable",
      "type": "function"
    },
    {
      "inputs": [
        {
          "internalType": "address",
          "name": "operator",
          "type": "address"
        },
        {
          "internalType": "bool",
          "name": "approved",
          "type": "bool"
        }
      ],
      "name": "setApprovalForAll",
      "outputs": [],
      "stateMutability": "nonpayable",
      "type": "function"
    },
    {
      "inputs": [
        {
          "internalType": "string",
          "name": "baseURI",
          "type": "string"
        }
      ],
      "name": "setBaseURI",
      "outputs": [],
      "stateMutability": "nonpayable",
      "type": "function"
    },
    {
      "inputs": [
        {
          "internalType": "bool",
          "name": "_isPremintPhase",
          "type": "bool"
        }
      ],
      "name": "setIsPremintPhase",
      "outputs": [],
      "stateMutability": "nonpayable",
      "type": "function"
    },
    {
      "inputs": [
        {
          "internalType": "bytes32",
          "name": "newRoot",
          "type": "bytes32"
        }
      ],
      "name": "setMerkleRoot",
      "outputs": [],
      "stateMutability": "nonpayable",
      "type": "function"
    },
    {
      "inputs": [
        {
          "internalType": "bytes4",
          "name": "interfaceId",
          "type": "bytes4"
        }
      ],
      "name": "supportsInterface",
      "outputs": [
        {
          "internalType": "bool",
          "name": "",
          "type": "bool"
        }
      ],
      "stateMutability": "view",
      "type": "function"
    },
    {
      "inputs": [],
      "name": "symbol",
      "outputs": [
        {
          "internalType": "string",
          "name": "",
          "type": "string"
        }
      ],
      "stateMutability": "view",
      "type": "function"
    },
    {
      "inputs": [
        {
          "internalType": "uint256",
          "name": "tokenId",
          "type": "uint256"
        }
      ],
      "name": "tokenURI",
      "outputs": [
        {
          "internalType": "string",
          "name": "",
          "type": "string"
        }
      ],
      "stateMutability": "view",
      "type": "function"
    },
    {
      "inputs": [
        {
          "internalType": "address",
          "name": "from",
          "type": "address"
        },
        {
          "internalType": "address",
          "name": "to",
          "type": "address"
        },
        {
          "internalType": "uint256",
          "name": "tokenId",
          "type": "uint256"
        }
      ],
      "name": "transferFrom",
      "outputs": [],
      "stateMutability": "nonpayable",
      "type": "function"
    },
    {
      "inputs": [
        {
          "internalType": "address",
          "name": "newOwner",
          "type": "address"
        }
      ],
      "name": "transferOwnership",
      "outputs": [],
      "stateMutability": "nonpayable",
      "type": "function"
    },
    {
      "inputs": [],
      "name": "withdraw",
      "outputs": [],
      "stateMutability": "nonpayable",
      "type": "function"
    }
  ],
  "bytecode": "0x60806040526001600860026101000a81548160ff0219169083151502179055503480156200002c57600080fd5b5060405162004e5d38038062004e5d8339818101604052810190620000529190620009ea565b6040518060400160405280601981526020017f546972616d69737520526563697065206279205354494c4c5a000000000000008152506040518060400160405280600581526020017f544d4953550000000000000000000000000000000000000000000000000000008152508160009080519060200190620000d69291906200086e565b508060019080519060200190620000ef9291906200086e565b5050506200011262000106620001c960201b60201c565b620001d160201b60201c565b81600790805190602001906200012a9291906200086e565b506000600860009054906101000a900461ffff16905060005b600a8161ffff161015620001ae57620001616200029760201b60201c565b620001987395645e9fcfee7882da368963d5a460308df24dd6828462000188919062000cab565b61ffff16620002ca60201b60201c565b8080620001a59062000e6b565b91505062000143565b50620001c082620002f060201b60201c565b50505062001037565b600033905090565b6000600660009054906101000a900473ffffffffffffffffffffffffffffffffffffffff16905081600660006101000a81548173ffffffffffffffffffffffffffffffffffffffff021916908373ffffffffffffffffffffffffffffffffffffffff1602179055508173ffffffffffffffffffffffffffffffffffffffff168173ffffffffffffffffffffffffffffffffffffffff167f8be0079c531659141344cd1fd0a4f28419497f9722a3daafe3b4186f6b6457e060405160405180910390a35050565b6001600860008282829054906101000a900461ffff160192506101000a81548161ffff021916908361ffff160217905550565b620002ec8282604051806020016040528060008152506200038960201b60201c565b5050565b62000300620001c960201b60201c565b73ffffffffffffffffffffffffffffffffffffffff1662000326620003f760201b60201c565b73ffffffffffffffffffffffffffffffffffffffff16146200037f576040517f08c379a0000000000000000000000000000000000000000000000000000000008152600401620003769062000bfd565b60405180910390fd5b8060098190555050565b6200039b83836200042160201b60201c565b620003b060008484846200061b60201b60201c565b620003f2576040517f08c379a0000000000000000000000000000000000000000000000000000000008152600401620003e99062000b97565b60405180910390fd5b505050565b6000600660009054906101000a900473ffffffffffffffffffffffffffffffffffffffff16905090565b600073ffffffffffffffffffffffffffffffffffffffff168273ffffffffffffffffffffffffffffffffffffffff16141562000494576040517f08c379a00000000000000000000000000000000000000000000000000000000081526004016200048b9062000bdb565b60405180910390fd5b620004a581620007d560201b60201c565b15620004e8576040517f08c379a0000000000000000000000000000000000000000000000000000000008152600401620004df9062000bb9565b60405180910390fd5b620004fc600083836200084160201b60201c565b6001600360008473ffffffffffffffffffffffffffffffffffffffff1673ffffffffffffffffffffffffffffffffffffffff16815260200190815260200160002060008282546200054e919062000cea565b92505081905550816002600083815260200190815260200160002060006101000a81548173ffffffffffffffffffffffffffffffffffffffff021916908373ffffffffffffffffffffffffffffffffffffffff160217905550808273ffffffffffffffffffffffffffffffffffffffff16600073ffffffffffffffffffffffffffffffffffffffff167fddf252ad1be2c89b69c2b068fc378daa952ba7f163c4a11628f55a4df523b3ef60405160405180910390a462000617600083836200084660201b60201c565b5050565b6000620006498473ffffffffffffffffffffffffffffffffffffffff166200084b60201b620015df1760201c565b15620007c8578373ffffffffffffffffffffffffffffffffffffffff1663150b7a026200067b620001c960201b60201c565b8786866040518563ffffffff1660e01b81526004016200069f949392919062000b43565b602060405180830381600087803b158015620006ba57600080fd5b505af1925050508015620006ee57506040513d601f19601f82011682018060405250810190620006eb9190620009be565b60015b62000777573d806000811462000721576040519150601f19603f3d011682016040523d82523d6000602084013e62000726565b606091505b506000815114156200076f576040517f08c379a0000000000000000000000000000000000000000000000000000000008152600401620007669062000b97565b60405180910390fd5b805181602001fd5b63150b7a0260e01b7bffffffffffffffffffffffffffffffffffffffffffffffffffffffff1916817bffffffffffffffffffffffffffffffffffffffffffffffffffffffff191614915050620007cd565b600190505b949350505050565b60008073ffffffffffffffffffffffffffffffffffffffff166002600084815260200190815260200160002060009054906101000a900473ffffffffffffffffffffffffffffffffffffffff1673ffffffffffffffffffffffffffffffffffffffff1614159050919050565b505050565b505050565b6000808273ffffffffffffffffffffffffffffffffffffffff163b119050919050565b8280546200087c9062000dff565b90600052602060002090601f016020900481019282620008a05760008555620008ec565b82601f10620008bb57805160ff1916838001178555620008ec565b82800160010185558215620008ec579182015b82811115620008eb578251825591602001919060010190620008ce565b5b509050620008fb9190620008ff565b5090565b5b808211156200091a57600081600090555060010162000900565b5090565b6000620009356200092f8462000c48565b62000c1f565b9050828152602081018484840111156200094e57600080fd5b6200095b84828562000dc9565b509392505050565b600081519050620009748162001003565b92915050565b6000815190506200098b816200101d565b92915050565b600082601f830112620009a357600080fd5b8151620009b58482602086016200091e565b91505092915050565b600060208284031215620009d157600080fd5b6000620009e1848285016200097a565b91505092915050565b60008060408385031215620009fe57600080fd5b600083015167ffffffffffffffff81111562000a1957600080fd5b62000a278582860162000991565b925050602062000a3a8582860162000963565b9150509250929050565b62000a4f8162000d47565b82525050565b600062000a628262000c7e565b62000a6e818562000c89565b935062000a8081856020860162000dc9565b62000a8b8162000f28565b840191505092915050565b600062000aa560328362000c9a565b915062000ab28262000f39565b604082019050919050565b600062000acc601c8362000c9a565b915062000ad98262000f88565b602082019050919050565b600062000af360208362000c9a565b915062000b008262000fb1565b602082019050919050565b600062000b1a60208362000c9a565b915062000b278262000fda565b602082019050919050565b62000b3d8162000dbf565b82525050565b600060808201905062000b5a600083018762000a44565b62000b69602083018662000a44565b62000b78604083018562000b32565b818103606083015262000b8c818462000a55565b905095945050505050565b6000602082019050818103600083015262000bb28162000a96565b9050919050565b6000602082019050818103600083015262000bd48162000abd565b9050919050565b6000602082019050818103600083015262000bf68162000ae4565b9050919050565b6000602082019050818103600083015262000c188162000b0b565b9050919050565b600062000c2b62000c3e565b905062000c39828262000e35565b919050565b6000604051905090565b600067ffffffffffffffff82111562000c665762000c6562000ef9565b5b62000c718262000f28565b9050602081019050919050565b600081519050919050565b600082825260208201905092915050565b600082825260208201905092915050565b600062000cb88262000d91565b915062000cc58362000d91565b92508261ffff0382111562000cdf5762000cde62000e9b565b5b828201905092915050565b600062000cf78262000dbf565b915062000d048362000dbf565b9250827fffffffffffffffffffffffffffffffffffffffffffffffffffffffffffffffff0382111562000d3c5762000d3b62000e9b565b5b828201905092915050565b600062000d548262000d9f565b9050919050565b6000819050919050565b60007fffffffff0000000000000000000000000000000000000000000000000000000082169050919050565b600061ffff82169050919050565b600073ffffffffffffffffffffffffffffffffffffffff82169050919050565b6000819050919050565b60005b8381101562000de957808201518184015260208101905062000dcc565b8381111562000df9576000848401525b50505050565b6000600282049050600182168062000e1857607f821691505b6020821081141562000e2f5762000e2e62000eca565b5b50919050565b62000e408262000f28565b810181811067ffffffffffffffff8211171562000e625762000e6162000ef9565b5b80604052505050565b600062000e788262000d91565b915061ffff82141562000e905762000e8f62000e9b565b5b600182019050919050565b7f4e487b7100000000000000000000000000000000000000000000000000000000600052601160045260246000fd5b7f4e487b7100000000000000000000000000000000000000000000000000000000600052602260045260246000fd5b7f4e487b7100000000000000000000000000000000000000000000000000000000600052604160045260246000fd5b6000601f19601f8301169050919050565b7f4552433732313a207472616e7366657220746f206e6f6e20455243373231526560008201527f63656976657220696d706c656d656e7465720000000000000000000000000000602082015250565b7f4552433732313a20746f6b656e20616c7265616479206d696e74656400000000600082015250565b7f4552433732313a206d696e7420746f20746865207a65726f2061646472657373600082015250565b7f4f776e61626c653a2063616c6c6572206973206e6f7420746865206f776e6572600082015250565b6200100e8162000d5b565b81146200101a57600080fd5b50565b620010288162000d65565b81146200103457600080fd5b50565b613e1680620010476000396000f3fe6080604052600436106101815760003560e01c80636352211e116100d157806395d89b411161008a578063c87b56dd11610064578063c87b56dd14610525578063de5f986614610562578063e985e9c51461058d578063f2fde38b146105ca57610181565b806395d89b41146104a8578063a22cb465146104d3578063b88d4fde146104fc57610181565b80636352211e1461039857806370a08231146103d5578063715018a6146104125780637cb64759146104295780638d859f3e146104525780638da5cb5b1461047d57610181565b806332cb6b0c1161013e57806342842e0e1161011857806342842e0e146102f4578063524c2a041461031d57806355f804b3146103465780635c9b75711461036f57610181565b806332cb6b0c1461028757806337230ba2146102b25780633ccfd60b146102dd57610181565b806301ffc9a71461018657806306fdde03146101c3578063081812fc146101ee578063095ea7b31461022b5780631249c58b1461025457806323b872dd1461025e575b600080fd5b34801561019257600080fd5b506101ad60048036038101906101a891906129d9565b6105f3565b6040516101ba9190612faa565b60405180910390f35b3480156101cf57600080fd5b506101d86106d5565b6040516101e59190612fc5565b60405180910390f35b3480156101fa57600080fd5b5061021560048036038101906102109190612a6c565b610767565b6040516102229190612f43565b60405180910390f35b34801561023757600080fd5b50610252600480360381019061024d9190612906565b6107ec565b005b61025c610904565b005b34801561026a57600080fd5b5061028560048036038101906102809190612800565b6109b3565b005b34801561029357600080fd5b5061029c610a13565b6040516102a991906132c7565b60405180910390f35b3480156102be57600080fd5b506102c7610a19565b6040516102d49190612faa565b60405180910390f35b3480156102e957600080fd5b506102f2610a30565b005b34801561030057600080fd5b5061031b60048036038101906103169190612800565b610c4a565b005b34801561032957600080fd5b50610344600480360381019061033f9190612942565b610c6a565b005b34801561035257600080fd5b5061036d60048036038101906103689190612a2b565b610e11565b005b34801561037b57600080fd5b5061039660048036038101906103919190612987565b610ea7565b005b3480156103a457600080fd5b506103bf60048036038101906103ba9190612a6c565b610f40565b6040516103cc9190612f43565b60405180910390f35b3480156103e157600080fd5b506103fc60048036038101906103f7919061279b565b610ff2565b60405161040991906132e2565b60405180910390f35b34801561041e57600080fd5b506104276110aa565b005b34801561043557600080fd5b50610450600480360381019061044b91906129b0565b611132565b005b34801561045e57600080fd5b506104676111b8565b60405161047491906132fd565b60405180910390f35b34801561048957600080fd5b506104926111c4565b60405161049f9190612f43565b60405180910390f35b3480156104b457600080fd5b506104bd6111ee565b6040516104ca9190612fc5565b60405180910390f35b3480156104df57600080fd5b506104fa60048036038101906104f591906128ca565b611280565b005b34801561050857600080fd5b50610523600480360381019061051e919061284f565b611296565b005b34801561053157600080fd5b5061054c60048036038101906105479190612a6c565b6112f8565b6040516105599190612fc5565b60405180910390f35b34801561056e57600080fd5b5061057761145f565b60405161058491906132c7565b60405180910390f35b34801561059957600080fd5b506105b460048036038101906105af91906127c4565b611484565b6040516105c19190612faa565b60405180910390f35b3480156105d657600080fd5b506105f160048036038101906105ec919061279b565b6114e7565b005b60007f80ac58cd000000000000000000000000000000000000000000000000000000007bffffffffffffffffffffffffffffffffffffffffffffffffffffffff1916827bffffffffffffffffffffffffffffffffffffffffffffffffffffffff191614806106be57507f5b5e139f000000000000000000000000000000000000000000000000000000007bffffffffffffffffffffffffffffffffffffffffffffffffffffffff1916827bffffffffffffffffffffffffffffffffffffffffffffffffffffffff1916145b806106ce57506106cd82611602565b5b9050919050565b6060600080546106e490613618565b80601f016020809104026020016040519081016040528092919081815260200182805461071090613618565b801561075d5780601f106107325761010080835404028352916020019161075d565b820191906000526020600020905b81548152906001019060200180831161074057829003601f168201915b5050505050905090565b60006107728261166c565b6107b1576040517f08c379a00000000000000000000000000000000000000000000000000000000081526004016107a8906131e7565b60405180910390fd5b6004600083815260200190815260200160002060009054906101000a900473ffffffffffffffffffffffffffffffffffffffff169050919050565b60006107f782610f40565b90508073ffffffffffffffffffffffffffffffffffffffff168373ffffffffffffffffffffffffffffffffffffffff161415610868576040517f08c379a000000000000000000000000000000000000000000000000000000000815260040161085f90613247565b60405180910390fd5b8073ffffffffffffffffffffffffffffffffffffffff166108876116d8565b73ffffffffffffffffffffffffffffffffffffffff1614806108b657506108b5816108b06116d8565b611484565b5b6108f5576040517f08c379a00000000000000000000000000000000000000000000000000000000081526004016108ec90613167565b60405180910390fd5b6108ff83836116e0565b505050565b600860029054906101000a900460ff1615610954576040517f08c379a000000000000000000000000000000000000000000000000000000000815260040161094b90613287565b60405180910390fd5b67016345785d8a000067ffffffffffffffff1634146109a8576040517f08c379a000000000000000000000000000000000000000000000000000000000815260040161099f906130c7565b60405180910390fd5b6109b133611799565b565b6109c46109be6116d8565b82611814565b610a03576040517f08c379a00000000000000000000000000000000000000000000000000000000081526004016109fa90613267565b60405180910390fd5b610a0e8383836118f2565b505050565b6103e881565b6000600860029054906101000a900460ff16905090565b610a386116d8565b73ffffffffffffffffffffffffffffffffffffffff16610a566111c4565b73ffffffffffffffffffffffffffffffffffffffff1614610aac576040517f08c379a0000000000000000000000000000000000000000000000000000000008152600401610aa390613207565b60405180910390fd5b600047905060008111610abe57600080fd5b60007395645e9fcfee7882da368963d5a460308df24dd673ffffffffffffffffffffffffffffffffffffffff16600a600884610afa9190613474565b610b049190613443565b604051610b1090612f2e565b60006040518083038185875af1925050503d8060008114610b4d576040519150601f19603f3d011682016040523d82523d6000602084013e610b52565b606091505b50509050600073705a47ebc6fce487a3c64a2da64ce2e3b8b2ef5573ffffffffffffffffffffffffffffffffffffffff16600a600285610b929190613474565b610b9c9190613443565b604051610ba890612f2e565b60006040518083038185875af1925050503d8060008114610be5576040519150601f19603f3d011682016040523d82523d6000602084013e610bea565b606091505b5050905060011515821515148015610c06575060011515811515145b610c45576040517f08c379a0000000000000000000000000000000000000000000000000000000008152600401610c3c906132a7565b60405180910390fd5b505050565b610c6583838360405180602001604052806000815250611296565b505050565b600860029054906101000a900460ff16610cb9576040517f08c379a0000000000000000000000000000000000000000000000000000000008152600401610cb090613127565b60405180910390fd5b610d0c610cc533611b59565b838380806020026020016040519081016040528093929190818152602001838360200280828437600081840152601f19601f82011690508083019250505050505050611b89565b610d4b576040517f08c379a0000000000000000000000000000000000000000000000000000000008152600401610d4290613047565b60405180910390fd5b600033604051602001610d5e9190612ee2565b604051602081830303815290604052805190602001209050600a600082815260200190815260200160002060009054906101000a900460ff1615610dd7576040517f08c379a0000000000000000000000000000000000000000000000000000000008152600401610dce906130a7565b60405180910390fd5b6001600a600083815260200190815260200160002060006101000a81548160ff021916908315150217905550610e0c33611799565b505050565b610e196116d8565b73ffffffffffffffffffffffffffffffffffffffff16610e376111c4565b73ffffffffffffffffffffffffffffffffffffffff1614610e8d576040517f08c379a0000000000000000000000000000000000000000000000000000000008152600401610e8490613207565b60405180910390fd5b8060079080519060200190610ea3929190612560565b5050565b610eaf6116d8565b73ffffffffffffffffffffffffffffffffffffffff16610ecd6111c4565b73ffffffffffffffffffffffffffffffffffffffff1614610f23576040517f08c379a0000000000000000000000000000000000000000000000000000000008152600401610f1a90613207565b60405180910390fd5b80600860026101000a81548160ff02191690831515021790555050565b6000806002600084815260200190815260200160002060009054906101000a900473ffffffffffffffffffffffffffffffffffffffff169050600073ffffffffffffffffffffffffffffffffffffffff168173ffffffffffffffffffffffffffffffffffffffff161415610fe9576040517f08c379a0000000000000000000000000000000000000000000000000000000008152600401610fe0906131a7565b60405180910390fd5b80915050919050565b60008073ffffffffffffffffffffffffffffffffffffffff168273ffffffffffffffffffffffffffffffffffffffff161415611063576040517f08c379a000000000000000000000000000000000000000000000000000000000815260040161105a90613187565b60405180910390fd5b600360008373ffffffffffffffffffffffffffffffffffffffff1673ffffffffffffffffffffffffffffffffffffffff168152602001908152602001600020549050919050565b6110b26116d8565b73ffffffffffffffffffffffffffffffffffffffff166110d06111c4565b73ffffffffffffffffffffffffffffffffffffffff1614611126576040517f08c379a000000000000000000000000000000000000000000000000000000000815260040161111d90613207565b60405180910390fd5b6111306000611ba0565b565b61113a6116d8565b73ffffffffffffffffffffffffffffffffffffffff166111586111c4565b73ffffffffffffffffffffffffffffffffffffffff16146111ae576040517f08c379a00000000000000000000000000000000000000000000000000000000081526004016111a590613207565b60405180910390fd5b8060098190555050565b67016345785d8a000081565b6000600660009054906101000a900473ffffffffffffffffffffffffffffffffffffffff16905090565b6060600180546111fd90613618565b80601f016020809104026020016040519081016040528092919081815260200182805461122990613618565b80156112765780601f1061124b57610100808354040283529160200191611276565b820191906000526020600020905b81548152906001019060200180831161125957829003601f168201915b5050505050905090565b61129261128b6116d8565b8383611c66565b5050565b6112a76112a16116d8565b83611814565b6112e6576040517f08c379a00000000000000000000000000000000000000000000000000000000081526004016112dd90613267565b60405180910390fd5b6112f284848484611dd3565b50505050565b60606113038261166c565b611342576040517f08c379a000000000000000000000000000000000000000000000000000000000815260040161133990613227565b60405180910390fd5b60006040518060400160405280600581526020017f2e6a736f6e000000000000000000000000000000000000000000000000000000815250905060006007805461138b90613618565b80601f01602080910402602001604051908101604052809291908181526020018280546113b790613618565b80156114045780601f106113d957610100808354040283529160200191611404565b820191906000526020600020905b8154815290600101906020018083116113e757829003601f168201915b5050505050905060008151116114295760405180602001604052806000815250611456565b8061143385611e2f565b8360405160200161144693929190612efd565b6040516020818303038152906040525b92505050919050565b6000600860009054906101000a900461ffff166103e861147f91906134ce565b905090565b6000737be8076f4ea4a4ad08075c2508e481d6c946d12b73ffffffffffffffffffffffffffffffffffffffff168273ffffffffffffffffffffffffffffffffffffffff16146114dc576114d78383611fdc565b6114df565b60015b905092915050565b6114ef6116d8565b73ffffffffffffffffffffffffffffffffffffffff1661150d6111c4565b73ffffffffffffffffffffffffffffffffffffffff1614611563576040517f08c379a000000000000000000000000000000000000000000000000000000000815260040161155a90613207565b60405180910390fd5b600073ffffffffffffffffffffffffffffffffffffffff168173ffffffffffffffffffffffffffffffffffffffff1614156115d3576040517f08c379a00000000000000000000000000000000000000000000000000000000081526004016115ca90613027565b60405180910390fd5b6115dc81611ba0565b50565b6000808273ffffffffffffffffffffffffffffffffffffffff163b119050919050565b60007f01ffc9a7000000000000000000000000000000000000000000000000000000007bffffffffffffffffffffffffffffffffffffffffffffffffffffffff1916827bffffffffffffffffffffffffffffffffffffffffffffffffffffffff1916149050919050565b60008073ffffffffffffffffffffffffffffffffffffffff166002600084815260200190815260200160002060009054906101000a900473ffffffffffffffffffffffffffffffffffffffff1673ffffffffffffffffffffffffffffffffffffffff1614159050919050565b600033905090565b816004600083815260200190815260200160002060006101000a81548173ffffffffffffffffffffffffffffffffffffffff021916908373ffffffffffffffffffffffffffffffffffffffff160217905550808273ffffffffffffffffffffffffffffffffffffffff1661175383610f40565b73ffffffffffffffffffffffffffffffffffffffff167f8c5be1e5ebec7d5bd14f71427d1e84f3dd0314c0f7b2291e5b200ac8c7c3b92560405160405180910390a45050565b6000600860009054906101000a900461ffff1690506103e861ffff168161ffff16106117fa576040517f08c379a00000000000000000000000000000000000000000000000000000000081526004016117f190612fe7565b60405180910390fd5b611802612070565b611810828261ffff166120a3565b5050565b600061181f8261166c565b61185e576040517f08c379a000000000000000000000000000000000000000000000000000000000815260040161185590613147565b60405180910390fd5b600061186983610f40565b90508073ffffffffffffffffffffffffffffffffffffffff168473ffffffffffffffffffffffffffffffffffffffff1614806118d857508373ffffffffffffffffffffffffffffffffffffffff166118c084610767565b73ffffffffffffffffffffffffffffffffffffffff16145b806118e957506118e88185611484565b5b91505092915050565b8273ffffffffffffffffffffffffffffffffffffffff1661191282610f40565b73ffffffffffffffffffffffffffffffffffffffff1614611968576040517f08c379a000000000000000000000000000000000000000000000000000000000815260040161195f90613067565b60405180910390fd5b600073ffffffffffffffffffffffffffffffffffffffff168273ffffffffffffffffffffffffffffffffffffffff1614156119d8576040517f08c379a00000000000000000000000000000000000000000000000000000000081526004016119cf906130e7565b60405180910390fd5b6119e38383836120c1565b6119ee6000826116e0565b6001600360008573ffffffffffffffffffffffffffffffffffffffff1673ffffffffffffffffffffffffffffffffffffffff1681526020019081526020016000206000828254611a3e9190613502565b925050819055506001600360008473ffffffffffffffffffffffffffffffffffffffff1673ffffffffffffffffffffffffffffffffffffffff1681526020019081526020016000206000828254611a9591906133ed565b92505081905550816002600083815260200190815260200160002060006101000a81548173ffffffffffffffffffffffffffffffffffffffff021916908373ffffffffffffffffffffffffffffffffffffffff160217905550808273ffffffffffffffffffffffffffffffffffffffff168473ffffffffffffffffffffffffffffffffffffffff167fddf252ad1be2c89b69c2b068fc378daa952ba7f163c4a11628f55a4df523b3ef60405160405180910390a4611b548383836120c6565b505050565b600081604051602001611b6c9190612ee2565b604051602081830303815290604052805190602001209050919050565b6000611b9882600954856120cb565b905092915050565b6000600660009054906101000a900473ffffffffffffffffffffffffffffffffffffffff16905081600660006101000a81548173ffffffffffffffffffffffffffffffffffffffff021916908373ffffffffffffffffffffffffffffffffffffffff1602179055508173ffffffffffffffffffffffffffffffffffffffff168173ffffffffffffffffffffffffffffffffffffffff167f8be0079c531659141344cd1fd0a4f28419497f9722a3daafe3b4186f6b6457e060405160405180910390a35050565b8173ffffffffffffffffffffffffffffffffffffffff168373ffffffffffffffffffffffffffffffffffffffff161415611cd5576040517f08c379a0000000000000000000000000000000000000000000000000000000008152600401611ccc90613107565b60405180910390fd5b80600560008573ffffffffffffffffffffffffffffffffffffffff1673ffffffffffffffffffffffffffffffffffffffff16815260200190815260200160002060008473ffffffffffffffffffffffffffffffffffffffff1673ffffffffffffffffffffffffffffffffffffffff16815260200190815260200160002060006101000a81548160ff0219169083151502179055508173ffffffffffffffffffffffffffffffffffffffff168373ffffffffffffffffffffffffffffffffffffffff167f17307eab39ab6107e8899845ad3d59bd9653f200f220920489ca2b5937696c3183604051611dc69190612faa565b60405180910390a3505050565b611dde8484846118f2565b611dea848484846120e2565b611e29576040517f08c379a0000000000000000000000000000000000000000000000000000000008152600401611e2090613007565b60405180910390fd5b50505050565b60606000821415611e77576040518060400160405280600181526020017f30000000000000000000000000000000000000000000000000000000000000008152509050611fd7565b600082905060005b60008214611ea9578080611e929061367b565b915050600a82611ea29190613443565b9150611e7f565b60008167ffffffffffffffff811115611eeb577f4e487b7100000000000000000000000000000000000000000000000000000000600052604160045260246000fd5b6040519080825280601f01601f191660200182016040528015611f1d5781602001600182028036833780820191505090505b5090505b60008514611fd057600182611f369190613502565b9150600a85611f4591906136e8565b6030611f5191906133ed565b60f81b818381518110611f8d577f4e487b7100000000000000000000000000000000000000000000000000000000600052603260045260246000fd5b60200101907effffffffffffffffffffffffffffffffffffffffffffffffffffffffffffff1916908160001a905350600a85611fc99190613443565b9450611f21565b8093505050505b919050565b6000600560008473ffffffffffffffffffffffffffffffffffffffff1673ffffffffffffffffffffffffffffffffffffffff16815260200190815260200160002060008373ffffffffffffffffffffffffffffffffffffffff1673ffffffffffffffffffffffffffffffffffffffff16815260200190815260200160002060009054906101000a900460ff16905092915050565b6001600860008282829054906101000a900461ffff160192506101000a81548161ffff021916908361ffff160217905550565b6120bd828260405180602001604052806000815250612279565b5050565b505050565b505050565b6000826120d885846122d4565b1490509392505050565b60006121038473ffffffffffffffffffffffffffffffffffffffff166115df565b1561226c578373ffffffffffffffffffffffffffffffffffffffff1663150b7a0261212c6116d8565b8786866040518563ffffffff1660e01b815260040161214e9493929190612f5e565b602060405180830381600087803b15801561216857600080fd5b505af192505050801561219957506040513d601f19601f820116820180604052508101906121969190612a02565b60015b61221c573d80600081146121c9576040519150601f19603f3d011682016040523d82523d6000602084013e6121ce565b606091505b50600081511415612214576040517f08c379a000000000000000000000000000000000000000000000000000000000815260040161220b90613007565b60405180910390fd5b805181602001fd5b63150b7a0260e01b7bffffffffffffffffffffffffffffffffffffffffffffffffffffffff1916817bffffffffffffffffffffffffffffffffffffffffffffffffffffffff191614915050612271565b600190505b949350505050565b612283838361236f565b61229060008484846120e2565b6122cf576040517f08c379a00000000000000000000000000000000000000000000000000000000081526004016122c690613007565b60405180910390fd5b505050565b60008082905060005b8451811015612364576000858281518110612321577f4e487b7100000000000000000000000000000000000000000000000000000000600052603260045260246000fd5b602002602001015190508083116123435761233c8382612549565b9250612350565b61234d8184612549565b92505b50808061235c9061367b565b9150506122dd565b508091505092915050565b600073ffffffffffffffffffffffffffffffffffffffff168273ffffffffffffffffffffffffffffffffffffffff1614156123df576040517f08c379a00000000000000000000000000000000000000000000000000000000081526004016123d6906131c7565b60405180910390fd5b6123e88161166c565b15612428576040517f08c379a000000000000000000000000000000000000000000000000000000000815260040161241f90613087565b60405180910390fd5b612434600083836120c1565b6001600360008473ffffffffffffffffffffffffffffffffffffffff1673ffffffffffffffffffffffffffffffffffffffff168152602001908152602001600020600082825461248491906133ed565b92505081905550816002600083815260200190815260200160002060006101000a81548173ffffffffffffffffffffffffffffffffffffffff021916908373ffffffffffffffffffffffffffffffffffffffff160217905550808273ffffffffffffffffffffffffffffffffffffffff16600073ffffffffffffffffffffffffffffffffffffffff167fddf252ad1be2c89b69c2b068fc378daa952ba7f163c4a11628f55a4df523b3ef60405160405180910390a4612545600083836120c6565b5050565b600082600052816020526040600020905092915050565b82805461256c90613618565b90600052602060002090601f01602090048101928261258e57600085556125d5565b82601f106125a757805160ff19168380011785556125d5565b828001600101855582156125d5579182015b828111156125d45782518255916020019190600101906125b9565b5b5090506125e291906125e6565b5090565b5b808211156125ff5760008160009055506001016125e7565b5090565b60006126166126118461333d565b613318565b90508281526020810184848401111561262e57600080fd5b6126398482856135d6565b509392505050565b600061265461264f8461336e565b613318565b90508281526020810184848401111561266c57600080fd5b6126778482856135d6565b509392505050565b60008135905061268e81613d6d565b92915050565b60008083601f8401126126a657600080fd5b8235905067ffffffffffffffff8111156126bf57600080fd5b6020830191508360208202830111156126d757600080fd5b9250929050565b6000813590506126ed81613d84565b92915050565b60008135905061270281613d9b565b92915050565b60008135905061271781613db2565b92915050565b60008151905061272c81613db2565b92915050565b600082601f83011261274357600080fd5b8135612753848260208601612603565b91505092915050565b600082601f83011261276d57600080fd5b813561277d848260208601612641565b91505092915050565b60008135905061279581613dc9565b92915050565b6000602082840312156127ad57600080fd5b60006127bb8482850161267f565b91505092915050565b600080604083850312156127d757600080fd5b60006127e58582860161267f565b92505060206127f68582860161267f565b9150509250929050565b60008060006060848603121561281557600080fd5b60006128238682870161267f565b93505060206128348682870161267f565b925050604061284586828701612786565b9150509250925092565b6000806000806080858703121561286557600080fd5b60006128738782880161267f565b94505060206128848782880161267f565b935050604061289587828801612786565b925050606085013567ffffffffffffffff8111156128b257600080fd5b6128be87828801612732565b91505092959194509250565b600080604083850312156128dd57600080fd5b60006128eb8582860161267f565b92505060206128fc858286016126de565b9150509250929050565b6000806040838503121561291957600080fd5b60006129278582860161267f565b925050602061293885828601612786565b9150509250929050565b6000806020838503121561295557600080fd5b600083013567ffffffffffffffff81111561296f57600080fd5b61297b85828601612694565b92509250509250929050565b60006020828403121561299957600080fd5b60006129a7848285016126de565b91505092915050565b6000602082840312156129c257600080fd5b60006129d0848285016126f3565b91505092915050565b6000602082840312156129eb57600080fd5b60006129f984828501612708565b91505092915050565b600060208284031215612a1457600080fd5b6000612a228482850161271d565b91505092915050565b600060208284031215612a3d57600080fd5b600082013567ffffffffffffffff811115612a5757600080fd5b612a638482850161275c565b91505092915050565b600060208284031215612a7e57600080fd5b6000612a8c84828501612786565b91505092915050565b612a9e81613536565b82525050565b612ab5612ab082613536565b6136c4565b82525050565b612ac481613548565b82525050565b6000612ad58261339f565b612adf81856133b5565b9350612aef8185602086016135e5565b612af8816137d5565b840191505092915050565b6000612b0e826133aa565b612b1881856133d1565b9350612b288185602086016135e5565b612b31816137d5565b840191505092915050565b6000612b47826133aa565b612b5181856133e2565b9350612b618185602086016135e5565b80840191505092915050565b6000612b7a6014836133d1565b9150612b85826137f3565b602082019050919050565b6000612b9d6032836133d1565b9150612ba88261381c565b604082019050919050565b6000612bc06026836133d1565b9150612bcb8261386b565b604082019050919050565b6000612be36014836133d1565b9150612bee826138ba565b602082019050919050565b6000612c066025836133d1565b9150612c11826138e3565b604082019050919050565b6000612c29601c836133d1565b9150612c3482613932565b602082019050919050565b6000612c4c600f836133d1565b9150612c578261395b565b602082019050919050565b6000612c6f601f836133d1565b9150612c7a82613984565b602082019050919050565b6000612c926024836133d1565b9150612c9d826139ad565b604082019050919050565b6000612cb56019836133d1565b9150612cc0826139fc565b602082019050919050565b6000612cd86013836133d1565b9150612ce382613a25565b602082019050919050565b6000612cfb602c836133d1565b9150612d0682613a4e565b604082019050919050565b6000612d1e6038836133d1565b9150612d2982613a9d565b604082019050919050565b6000612d41602a836133d1565b9150612d4c82613aec565b604082019050919050565b6000612d646029836133d1565b9150612d6f82613b3b565b604082019050919050565b6000612d876020836133d1565b9150612d9282613b8a565b602082019050919050565b6000612daa602c836133d1565b9150612db582613bb3565b604082019050919050565b6000612dcd6020836133d1565b9150612dd882613c02565b602082019050919050565b6000612df0602f836133d1565b9150612dfb82613c2b565b604082019050919050565b6000612e136021836133d1565b9150612e1e82613c7a565b604082019050919050565b6000612e366000836133c6565b9150612e4182613cc9565b600082019050919050565b6000612e596031836133d1565b9150612e6482613ccc565b604082019050919050565b6000612e7c600d836133d1565b9150612e8782613d1b565b602082019050919050565b6000612e9f600f836133d1565b9150612eaa82613d44565b602082019050919050565b612ebe8161358a565b82525050565b612ecd816135b8565b82525050565b612edc816135c2565b82525050565b6000612eee8284612aa4565b60148201915081905092915050565b6000612f098286612b3c565b9150612f158285612b3c565b9150612f218284612b3c565b9150819050949350505050565b6000612f3982612e29565b9150819050919050565b6000602082019050612f586000830184612a95565b92915050565b6000608082019050612f736000830187612a95565b612f806020830186612a95565b612f8d6040830185612ec4565b8181036060830152612f9f8184612aca565b905095945050505050565b6000602082019050612fbf6000830184612abb565b92915050565b60006020820190508181036000830152612fdf8184612b03565b905092915050565b6000602082019050818103600083015261300081612b6d565b9050919050565b6000602082019050818103600083015261302081612b90565b9050919050565b6000602082019050818103600083015261304081612bb3565b9050919050565b6000602082019050818103600083015261306081612bd6565b9050919050565b6000602082019050818103600083015261308081612bf9565b9050919050565b600060208201905081810360008301526130a081612c1c565b9050919050565b600060208201905081810360008301526130c081612c3f565b9050919050565b600060208201905081810360008301526130e081612c62565b9050919050565b6000602082019050818103600083015261310081612c85565b9050919050565b6000602082019050818103600083015261312081612ca8565b9050919050565b6000602082019050818103600083015261314081612ccb565b9050919050565b6000602082019050818103600083015261316081612cee565b9050919050565b6000602082019050818103600083015261318081612d11565b9050919050565b600060208201905081810360008301526131a081612d34565b9050919050565b600060208201905081810360008301526131c081612d57565b9050919050565b600060208201905081810360008301526131e081612d7a565b9050919050565b6000602082019050818103600083015261320081612d9d565b9050919050565b6000602082019050818103600083015261322081612dc0565b9050919050565b6000602082019050818103600083015261324081612de3565b9050919050565b6000602082019050818103600083015261326081612e06565b9050919050565b6000602082019050818103600083015261328081612e4c565b9050919050565b600060208201905081810360008301526132a081612e6f565b9050919050565b600060208201905081810360008301526132c081612e92565b9050919050565b60006020820190506132dc6000830184612eb5565b92915050565b60006020820190506132f76000830184612ec4565b92915050565b60006020820190506133126000830184612ed3565b92915050565b6000613322613333565b905061332e828261364a565b919050565b6000604051905090565b600067ffffffffffffffff821115613358576133576137a6565b5b613361826137d5565b9050602081019050919050565b600067ffffffffffffffff821115613389576133886137a6565b5b613392826137d5565b9050602081019050919050565b600081519050919050565b600081519050919050565b600082825260208201905092915050565b600081905092915050565b600082825260208201905092915050565b600081905092915050565b60006133f8826135b8565b9150613403836135b8565b9250827fffffffffffffffffffffffffffffffffffffffffffffffffffffffffffffffff0382111561343857613437613719565b5b828201905092915050565b600061344e826135b8565b9150613459836135b8565b92508261346957613468613748565b5b828204905092915050565b600061347f826135b8565b915061348a836135b8565b9250817fffffffffffffffffffffffffffffffffffffffffffffffffffffffffffffffff04831182151516156134c3576134c2613719565b5b828202905092915050565b60006134d98261358a565b91506134e48361358a565b9250828210156134f7576134f6613719565b5b828203905092915050565b600061350d826135b8565b9150613518836135b8565b92508282101561352b5761352a613719565b5b828203905092915050565b600061354182613598565b9050919050565b60008115159050919050565b6000819050919050565b60007fffffffff0000000000000000000000000000000000000000000000000000000082169050919050565b600061ffff82169050919050565b600073ffffffffffffffffffffffffffffffffffffffff82169050919050565b6000819050919050565b600067ffffffffffffffff82169050919050565b82818337600083830152505050565b60005b838110156136035780820151818401526020810190506135e8565b83811115613612576000848401525b50505050565b6000600282049050600182168061363057607f821691505b6020821081141561364457613643613777565b5b50919050565b613653826137d5565b810181811067ffffffffffffffff82111715613672576136716137a6565b5b80604052505050565b6000613686826135b8565b91507fffffffffffffffffffffffffffffffffffffffffffffffffffffffffffffffff8214156136b9576136b8613719565b5b600182019050919050565b60006136cf826136d6565b9050919050565b60006136e1826137e6565b9050919050565b60006136f3826135b8565b91506136fe836135b8565b92508261370e5761370d613748565b5b828206905092915050565b7f4e487b7100000000000000000000000000000000000000000000000000000000600052601160045260246000fd5b7f4e487b7100000000000000000000000000000000000000000000000000000000600052601260045260246000fd5b7f4e487b7100000000000000000000000000000000000000000000000000000000600052602260045260246000fd5b7f4e487b7100000000000000000000000000000000000000000000000000000000600052604160045260246000fd5b6000601f19601f8301169050919050565b60008160601b9050919050565b7f6578636565647320746f6b656e20737570706c79000000000000000000000000600082015250565b7f4552433732313a207472616e7366657220746f206e6f6e20455243373231526560008201527f63656976657220696d706c656d656e7465720000000000000000000000000000602082015250565b7f4f776e61626c653a206e6577206f776e657220697320746865207a65726f206160008201527f6464726573730000000000000000000000000000000000000000000000000000602082015250565b7f696e76616c6964206d65726b6c652070726f6f66000000000000000000000000600082015250565b7f4552433732313a207472616e736665722066726f6d20696e636f72726563742060008201527f6f776e6572000000000000000000000000000000000000000000000000000000602082015250565b7f4552433732313a20746f6b656e20616c7265616479206d696e74656400000000600082015250565b7f616c726561647920636c61696d65640000000000000000000000000000000000600082015250565b7f696e636f727265637420657468657220616d6f756e7420737570706c69656400600082015250565b7f4552433732313a207472616e7366657220746f20746865207a65726f2061646460008201527f7265737300000000000000000000000000000000000000000000000000000000602082015250565b7f4552433732313a20617070726f766520746f2063616c6c657200000000000000600082015250565b7f6e6f742061207072656d696e7420706861736500000000000000000000000000600082015250565b7f4552433732313a206f70657261746f7220717565727920666f72206e6f6e657860008201527f697374656e7420746f6b656e0000000000000000000000000000000000000000602082015250565b7f4552433732313a20617070726f76652063616c6c6572206973206e6f74206f7760008201527f6e6572206e6f7220617070726f76656420666f7220616c6c0000000000000000602082015250565b7f4552433732313a2062616c616e636520717565727920666f7220746865207a6560008201527f726f206164647265737300000000000000000000000000000000000000000000602082015250565b7f4552433732313a206f776e657220717565727920666f72206e6f6e657869737460008201527f656e7420746f6b656e0000000000000000000000000000000000000000000000602082015250565b7f4552433732313a206d696e7420746f20746865207a65726f2061646472657373600082015250565b7f4552433732313a20617070726f76656420717565727920666f72206e6f6e657860008201527f697374656e7420746f6b656e0000000000000000000000000000000000000000602082015250565b7f4f776e61626c653a2063616c6c6572206973206e6f7420746865206f776e6572600082015250565b7f4552433732314d657461646174613a2055524920717565727920666f72206e6f60008201527f6e6578697374656e7420746f6b656e0000000000000000000000000000000000602082015250565b7f4552433732313a20617070726f76616c20746f2063757272656e74206f776e6560008201527f7200000000000000000000000000000000000000000000000000000000000000602082015250565b50565b7f4552433732313a207472616e736665722063616c6c6572206973206e6f74206f60008201527f776e6572206e6f7220617070726f766564000000000000000000000000000000602082015250565b7f7072656d696e7420706861736500000000000000000000000000000000000000600082015250565b7f7769746864726177206661696c65640000000000000000000000000000000000600082015250565b613d7681613536565b8114613d8157600080fd5b50565b613d8d81613548565b8114613d9857600080fd5b50565b613da481613554565b8114613daf57600080fd5b50565b613dbb8161355e565b8114613dc657600080fd5b50565b613dd2816135b8565b8114613ddd57600080fd5b5056fea2646970667358221220fd11ed8ad13734ed77a1a26f41169510fde11f92f09c213c907b9ff25f8c35a464736f6c63430008040033",
  "linkReferences": {},
  "deployedLinkReferences": {}
}