{
  "_format": "hh-sol-artifact-1",
  "contractName": "Tiramisu",
  "sourceName": "contracts/Tiramisu.sol",
  "abi": [
    {
      "inputs": [
        {
          "internalType": "string",
          "name": "baseURI",
          "type": "string"
        },
        {
          "internalType": "bytes32",
          "name": "initialRoot",
          "type": "bytes32"
        }
      ],
      "stateMutability": "nonpayable",
      "type": "constructor"
    },
    {
      "anonymous": false,
      "inputs": [
        {
          "indexed": true,
          "internalType": "address",
          "name": "owner",
          "type": "address"
        },
        {
          "indexed": true,
          "internalType": "address",
          "name": "approved",
          "type": "address"
        },
        {
          "indexed": true,
          "internalType": "uint256",
          "name": "tokenId",
          "type": "uint256"
        }
      ],
      "name": "Approval",
      "type": "event"
    },
    {
      "anonymous": false,
      "inputs": [
        {
          "indexed": true,
          "internalType": "address",
          "name": "owner",
          "type": "address"
        },
        {
          "indexed": true,
          "internalType": "address",
          "name": "operator",
          "type": "address"
        },
        {
          "indexed": false,
          "internalType": "bool",
          "name": "approved",
          "type": "bool"
        }
      ],
      "name": "ApprovalForAll",
      "type": "event"
    },
    {
      "anonymous": false,
      "inputs": [
        {
          "indexed": true,
          "internalType": "address",
          "name": "previousOwner",
          "type": "address"
        },
        {
          "indexed": true,
          "internalType": "address",
          "name": "newOwner",
          "type": "address"
        }
      ],
      "name": "OwnershipTransferred",
      "type": "event"
    },
    {
      "anonymous": false,
      "inputs": [
        {
          "indexed": true,
          "internalType": "address",
          "name": "from",
          "type": "address"
        },
        {
          "indexed": true,
          "internalType": "address",
          "name": "to",
          "type": "address"
        },
        {
          "indexed": true,
          "internalType": "uint256",
          "name": "tokenId",
          "type": "uint256"
        }
      ],
      "name": "Transfer",
      "type": "event"
    },
    {
      "inputs": [],
      "name": "MAX_SUPPLY",
      "outputs": [
        {
          "internalType": "uint16",
          "name": "",
          "type": "uint16"
        }
      ],
      "stateMutability": "view",
      "type": "function"
    },
    {
      "inputs": [],
      "name": "PRICE",
      "outputs": [
        {
          "internalType": "uint64",
          "name": "",
          "type": "uint64"
        }
      ],
      "stateMutability": "view",
      "type": "function"
    },
    {
      "inputs": [
        {
          "internalType": "address",
          "name": "to",
          "type": "address"
        },
        {
          "internalType": "uint256",
          "name": "tokenId",
          "type": "uint256"
        }
      ],
      "name": "approve",
      "outputs": [],
      "stateMutability": "nonpayable",
      "type": "function"
    },
    {
      "inputs": [
        {
          "internalType": "address",
          "name": "owner",
          "type": "address"
        }
      ],
      "name": "balanceOf",
      "outputs": [
        {
          "internalType": "uint256",
          "name": "",
          "type": "uint256"
        }
      ],
      "stateMutability": "view",
      "type": "function"
    },
    {
      "inputs": [
        {
          "internalType": "uint256",
          "name": "tokenId",
          "type": "uint256"
        }
      ],
      "name": "getApproved",
      "outputs": [
        {
          "internalType": "address",
          "name": "",
          "type": "address"
        }
      ],
      "stateMutability": "view",
      "type": "function"
    },
    {
      "inputs": [],
      "name": "getTokensLeft",
      "outputs": [
        {
          "internalType": "uint16",
          "name": "",
          "type": "uint16"
        }
      ],
      "stateMutability": "view",
      "type": "function"
    },
    {
      "inputs": [
        {
          "internalType": "address",
          "name": "owner",
          "type": "address"
        },
        {
          "internalType": "address",
          "name": "operator",
          "type": "address"
        }
      ],
      "name": "isApprovedForAll",
      "outputs": [
        {
          "internalType": "bool",
          "name": "",
          "type": "bool"
        }
      ],
      "stateMutability": "view",
      "type": "function"
    },
    {
      "inputs": [],
      "name": "isPremintPhase",
      "outputs": [
        {
          "internalType": "bool",
          "name": "",
          "type": "bool"
        }
      ],
      "stateMutability": "view",
      "type": "function"
    },
    {
      "inputs": [],
      "name": "mint",
      "outputs": [],
      "stateMutability": "payable",
      "type": "function"
    },
    {
      "inputs": [],
      "name": "name",
      "outputs": [
        {
          "internalType": "string",
          "name": "",
          "type": "string"
        }
      ],
      "stateMutability": "view",
      "type": "function"
    },
    {
      "inputs": [],
      "name": "owner",
      "outputs": [
        {
          "internalType": "address",
          "name": "",
          "type": "address"
        }
      ],
      "stateMutability": "view",
      "type": "function"
    },
    {
      "inputs": [
        {
          "internalType": "uint256",
          "name": "tokenId",
          "type": "uint256"
        }
      ],
      "name": "ownerOf",
      "outputs": [
        {
          "internalType": "address",
          "name": "",
          "type": "address"
        }
      ],
      "stateMutability": "view",
      "type": "function"
    },
    {
      "inputs": [
        {
          "internalType": "bytes32[]",
          "name": "proof",
          "type": "bytes32[]"
        }
      ],
      "name": "redeem",
      "outputs": [],
      "stateMutability": "nonpayable",
      "type": "function"
    },
    {
      "inputs": [],
      "name": "renounceOwnership",
      "outputs": [],
      "stateMutability": "nonpayable",
      "type": "function"
    },
    {
      "inputs": [
        {
          "internalType": "address",
          "name": "from",
          "type": "address"
        },
        {
          "internalType": "address",
          "name": "to",
          "type": "address"
        },
        {
          "internalType": "uint256",
          "name": "tokenId",
          "type": "uint256"
        }
      ],
      "name": "safeTransferFrom",
      "outputs": [],
      "stateMutability": "nonpayable",
      "type": "function"
    },
    {
      "inputs": [
        {
          "internalType": "address",
          "name": "from",
          "type": "address"
        },
        {
          "internalType": "address",
          "name": "to",
          "type": "address"
        },
        {
          "internalType": "uint256",
          "name": "tokenId",
          "type": "uint256"
        },
        {
          "internalType": "bytes",
          "name": "_data",
          "type": "bytes"
        }
      ],
      "name": "safeTransferFrom",
      "outputs": [],
      "stateMutability": "nonpayable",
      "type": "function"
    },
    {
      "inputs": [
        {
          "internalType": "address",
          "name": "operator",
          "type": "address"
        },
        {
          "internalType": "bool",
          "name": "approved",
          "type": "bool"
        }
      ],
      "name": "setApprovalForAll",
      "outputs": [],
      "stateMutability": "nonpayable",
      "type": "function"
    },
    {
      "inputs": [
        {
          "internalType": "string",
          "name": "baseURI",
          "type": "string"
        }
      ],
      "name": "setBaseURI",
      "outputs": [],
      "stateMutability": "nonpayable",
      "type": "function"
    },
    {
      "inputs": [
        {
          "internalType": "bool",
          "name": "_isPremintPhase",
          "type": "bool"
        }
      ],
      "name": "setIsPremintPhase",
      "outputs": [],
      "stateMutability": "nonpayable",
      "type": "function"
    },
    {
      "inputs": [
        {
          "internalType": "bytes32",
          "name": "newRoot",
          "type": "bytes32"
        }
      ],
      "name": "setMerkleRoot",
      "outputs": [],
      "stateMutability": "nonpayable",
      "type": "function"
    },
    {
      "inputs": [
        {
          "internalType": "bytes4",
          "name": "interfaceId",
          "type": "bytes4"
        }
      ],
      "name": "supportsInterface",
      "outputs": [
        {
          "internalType": "bool",
          "name": "",
          "type": "bool"
        }
      ],
      "stateMutability": "view",
      "type": "function"
    },
    {
      "inputs": [],
      "name": "symbol",
      "outputs": [
        {
          "internalType": "string",
          "name": "",
          "type": "string"
        }
      ],
      "stateMutability": "view",
      "type": "function"
    },
    {
      "inputs": [
        {
          "internalType": "uint256",
          "name": "tokenId",
          "type": "uint256"
        }
      ],
      "name": "tokenURI",
      "outputs": [
        {
          "internalType": "string",
          "name": "",
          "type": "string"
        }
      ],
      "stateMutability": "view",
      "type": "function"
    },
    {
      "inputs": [
        {
          "internalType": "address",
          "name": "from",
          "type": "address"
        },
        {
          "internalType": "address",
          "name": "to",
          "type": "address"
        },
        {
          "internalType": "uint256",
          "name": "tokenId",
          "type": "uint256"
        }
      ],
      "name": "transferFrom",
      "outputs": [],
      "stateMutability": "nonpayable",
      "type": "function"
    },
    {
      "inputs": [
        {
          "internalType": "address",
          "name": "newOwner",
          "type": "address"
        }
      ],
      "name": "transferOwnership",
      "outputs": [],
      "stateMutability": "nonpayable",
      "type": "function"
    },
    {
      "inputs": [],
      "name": "withdraw",
      "outputs": [],
      "stateMutability": "nonpayable",
      "type": "function"
    }
  ],
  "bytecode": "0x60806040526001600860026101000a81548160ff0219169083151502179055503480156200002c57600080fd5b5060405162004d9d38038062004d9d8339818101604052810190620000529190620009ea565b6040518060400160405280601981526020017f546972616d69737520526563697065206279205354494c4c5a000000000000008152506040518060400160405280600581526020017f544d4953550000000000000000000000000000000000000000000000000000008152508160009080519060200190620000d69291906200086e565b508060019080519060200190620000ef9291906200086e565b5050506200011262000106620001c960201b60201c565b620001d160201b60201c565b81600790805190602001906200012a9291906200086e565b506000600860009054906101000a900461ffff16905060005b600a8161ffff161015620001ae57620001616200029760201b60201c565b620001987395645e9fcfee7882da368963d5a460308df24dd6828462000188919062000cab565b61ffff16620002ca60201b60201c565b8080620001a59062000e6b565b91505062000143565b50620001c082620002f060201b60201c565b50505062001037565b600033905090565b6000600660009054906101000a900473ffffffffffffffffffffffffffffffffffffffff16905081600660006101000a81548173ffffffffffffffffffffffffffffffffffffffff021916908373ffffffffffffffffffffffffffffffffffffffff1602179055508173ffffffffffffffffffffffffffffffffffffffff168173ffffffffffffffffffffffffffffffffffffffff167f8be0079c531659141344cd1fd0a4f28419497f9722a3daafe3b4186f6b6457e060405160405180910390a35050565b6001600860008282829054906101000a900461ffff160192506101000a81548161ffff021916908361ffff160217905550565b620002ec8282604051806020016040528060008152506200038960201b60201c565b5050565b62000300620001c960201b60201c565b73ffffffffffffffffffffffffffffffffffffffff1662000326620003f760201b60201c565b73ffffffffffffffffffffffffffffffffffffffff16146200037f576040517f08c379a0000000000000000000000000000000000000000000000000000000008152600401620003769062000bfd565b60405180910390fd5b8060098190555050565b6200039b83836200042160201b60201c565b620003b060008484846200061b60201b60201c565b620003f2576040517f08c379a0000000000000000000000000000000000000000000000000000000008152600401620003e99062000b97565b60405180910390fd5b505050565b6000600660009054906101000a900473ffffffffffffffffffffffffffffffffffffffff16905090565b600073ffffffffffffffffffffffffffffffffffffffff168273ffffffffffffffffffffffffffffffffffffffff16141562000494576040517f08c379a00000000000000000000000000000000000000000000000000000000081526004016200048b9062000bdb565b60405180910390fd5b620004a581620007d560201b60201c565b15620004e8576040517f08c379a0000000000000000000000000000000000000000000000000000000008152600401620004df9062000bb9565b60405180910390fd5b620004fc600083836200084160201b60201c565b6001600360008473ffffffffffffffffffffffffffffffffffffffff1673ffffffffffffffffffffffffffffffffffffffff16815260200190815260200160002060008282546200054e919062000cea565b92505081905550816002600083815260200190815260200160002060006101000a81548173ffffffffffffffffffffffffffffffffffffffff021916908373ffffffffffffffffffffffffffffffffffffffff160217905550808273ffffffffffffffffffffffffffffffffffffffff16600073ffffffffffffffffffffffffffffffffffffffff167fddf252ad1be2c89b69c2b068fc378daa952ba7f163c4a11628f55a4df523b3ef60405160405180910390a462000617600083836200084660201b60201c565b5050565b6000620006498473ffffffffffffffffffffffffffffffffffffffff166200084b60201b6200158b1760201c565b15620007c8578373ffffffffffffffffffffffffffffffffffffffff1663150b7a026200067b620001c960201b60201c565b8786866040518563ffffffff1660e01b81526004016200069f949392919062000b43565b602060405180830381600087803b158015620006ba57600080fd5b505af1925050508015620006ee57506040513d601f19601f82011682018060405250810190620006eb9190620009be565b60015b62000777573d806000811462000721576040519150601f19603f3d011682016040523d82523d6000602084013e62000726565b606091505b506000815114156200076f576040517f08c379a0000000000000000000000000000000000000000000000000000000008152600401620007669062000b97565b60405180910390fd5b805181602001fd5b63150b7a0260e01b7bffffffffffffffffffffffffffffffffffffffffffffffffffffffff1916817bffffffffffffffffffffffffffffffffffffffffffffffffffffffff191614915050620007cd565b600190505b949350505050565b60008073ffffffffffffffffffffffffffffffffffffffff166002600084815260200190815260200160002060009054906101000a900473ffffffffffffffffffffffffffffffffffffffff1673ffffffffffffffffffffffffffffffffffffffff1614159050919050565b505050565b505050565b6000808273ffffffffffffffffffffffffffffffffffffffff163b119050919050565b8280546200087c9062000dff565b90600052602060002090601f016020900481019282620008a05760008555620008ec565b82601f10620008bb57805160ff1916838001178555620008ec565b82800160010185558215620008ec579182015b82811115620008eb578251825591602001919060010190620008ce565b5b509050620008fb9190620008ff565b5090565b5b808211156200091a57600081600090555060010162000900565b5090565b6000620009356200092f8462000c48565b62000c1f565b9050828152602081018484840111156200094e57600080fd5b6200095b84828562000dc9565b509392505050565b600081519050620009748162001003565b92915050565b6000815190506200098b816200101d565b92915050565b600082601f830112620009a357600080fd5b8151620009b58482602086016200091e565b91505092915050565b600060208284031215620009d157600080fd5b6000620009e1848285016200097a565b91505092915050565b60008060408385031215620009fe57600080fd5b600083015167ffffffffffffffff81111562000a1957600080fd5b62000a278582860162000991565b925050602062000a3a8582860162000963565b9150509250929050565b62000a4f8162000d47565b82525050565b600062000a628262000c7e565b62000a6e818562000c89565b935062000a8081856020860162000dc9565b62000a8b8162000f28565b840191505092915050565b600062000aa560328362000c9a565b915062000ab28262000f39565b604082019050919050565b600062000acc601c8362000c9a565b915062000ad98262000f88565b602082019050919050565b600062000af360208362000c9a565b915062000b008262000fb1565b602082019050919050565b600062000b1a60208362000c9a565b915062000b278262000fda565b602082019050919050565b62000b3d8162000dbf565b82525050565b600060808201905062000b5a600083018762000a44565b62000b69602083018662000a44565b62000b78604083018562000b32565b818103606083015262000b8c818462000a55565b905095945050505050565b6000602082019050818103600083015262000bb28162000a96565b9050919050565b6000602082019050818103600083015262000bd48162000abd565b9050919050565b6000602082019050818103600083015262000bf68162000ae4565b9050919050565b6000602082019050818103600083015262000c188162000b0b565b9050919050565b600062000c2b62000c3e565b905062000c39828262000e35565b919050565b6000604051905090565b600067ffffffffffffffff82111562000c665762000c6562000ef9565b5b62000c718262000f28565b9050602081019050919050565b600081519050919050565b600082825260208201905092915050565b600082825260208201905092915050565b600062000cb88262000d91565b915062000cc58362000d91565b92508261ffff0382111562000cdf5762000cde62000e9b565b5b828201905092915050565b600062000cf78262000dbf565b915062000d048362000dbf565b9250827fffffffffffffffffffffffffffffffffffffffffffffffffffffffffffffffff0382111562000d3c5762000d3b62000e9b565b5b828201905092915050565b600062000d548262000d9f565b9050919050565b6000819050919050565b60007fffffffff0000000000000000000000000000000000000000000000000000000082169050919050565b600061ffff82169050919050565b600073ffffffffffffffffffffffffffffffffffffffff82169050919050565b6000819050919050565b60005b8381101562000de957808201518184015260208101905062000dcc565b8381111562000df9576000848401525b50505050565b6000600282049050600182168062000e1857607f821691505b6020821081141562000e2f5762000e2e62000eca565b5b50919050565b62000e408262000f28565b810181811067ffffffffffffffff8211171562000e625762000e6162000ef9565b5b80604052505050565b600062000e788262000d91565b915061ffff82141562000e905762000e8f62000e9b565b5b600182019050919050565b7f4e487b7100000000000000000000000000000000000000000000000000000000600052601160045260246000fd5b7f4e487b7100000000000000000000000000000000000000000000000000000000600052602260045260246000fd5b7f4e487b7100000000000000000000000000000000000000000000000000000000600052604160045260246000fd5b6000601f19601f8301169050919050565b7f4552433732313a207472616e7366657220746f206e6f6e20455243373231526560008201527f63656976657220696d706c656d656e7465720000000000000000000000000000602082015250565b7f4552433732313a20746f6b656e20616c7265616479206d696e74656400000000600082015250565b7f4552433732313a206d696e7420746f20746865207a65726f2061646472657373600082015250565b7f4f776e61626c653a2063616c6c6572206973206e6f7420746865206f776e6572600082015250565b6200100e8162000d5b565b81146200101a57600080fd5b50565b620010288162000d65565b81146200103457600080fd5b50565b613d5680620010476000396000f3fe6080604052600436106101815760003560e01c80636352211e116100d157806395d89b411161008a578063c87b56dd11610064578063c87b56dd14610525578063de5f986614610562578063e985e9c51461058d578063f2fde38b146105ca57610181565b806395d89b41146104a8578063a22cb465146104d3578063b88d4fde146104fc57610181565b80636352211e1461039857806370a08231146103d5578063715018a6146104125780637cb64759146104295780638d859f3e146104525780638da5cb5b1461047d57610181565b806332cb6b0c1161013e57806342842e0e1161011857806342842e0e146102f4578063524c2a041461031d57806355f804b3146103465780635c9b75711461036f57610181565b806332cb6b0c1461028757806337230ba2146102b25780633ccfd60b146102dd57610181565b806301ffc9a71461018657806306fdde03146101c3578063081812fc146101ee578063095ea7b31461022b5780631249c58b1461025457806323b872dd1461025e575b600080fd5b34801561019257600080fd5b506101ad60048036038101906101a89190612985565b6105f3565b6040516101ba9190612f33565b60405180910390f35b3480156101cf57600080fd5b506101d86106d5565b6040516101e59190612f4e565b60405180910390f35b3480156101fa57600080fd5b5061021560048036038101906102109190612a18565b610767565b6040516102229190612ecc565b60405180910390f35b34801561023757600080fd5b50610252600480360381019061024d91906128b2565b6107ec565b005b61025c610904565b005b34801561026a57600080fd5b50610285600480360381019061028091906127ac565b61095f565b005b34801561029357600080fd5b5061029c6109bf565b6040516102a99190613230565b60405180910390f35b3480156102be57600080fd5b506102c76109c5565b6040516102d49190612f33565b60405180910390f35b3480156102e957600080fd5b506102f26109dc565b005b34801561030057600080fd5b5061031b600480360381019061031691906127ac565b610bf6565b005b34801561032957600080fd5b50610344600480360381019061033f91906128ee565b610c16565b005b34801561035257600080fd5b5061036d600480360381019061036891906129d7565b610dbd565b005b34801561037b57600080fd5b5061039660048036038101906103919190612933565b610e53565b005b3480156103a457600080fd5b506103bf60048036038101906103ba9190612a18565b610eec565b6040516103cc9190612ecc565b60405180910390f35b3480156103e157600080fd5b506103fc60048036038101906103f79190612747565b610f9e565b604051610409919061324b565b60405180910390f35b34801561041e57600080fd5b50610427611056565b005b34801561043557600080fd5b50610450600480360381019061044b919061295c565b6110de565b005b34801561045e57600080fd5b50610467611164565b6040516104749190613266565b60405180910390f35b34801561048957600080fd5b50610492611170565b60405161049f9190612ecc565b60405180910390f35b3480156104b457600080fd5b506104bd61119a565b6040516104ca9190612f4e565b60405180910390f35b3480156104df57600080fd5b506104fa60048036038101906104f59190612876565b61122c565b005b34801561050857600080fd5b50610523600480360381019061051e91906127fb565b611242565b005b34801561053157600080fd5b5061054c60048036038101906105479190612a18565b6112a4565b6040516105599190612f4e565b60405180910390f35b34801561056e57600080fd5b5061057761140b565b6040516105849190613230565b60405180910390f35b34801561059957600080fd5b506105b460048036038101906105af9190612770565b611430565b6040516105c19190612f33565b60405180910390f35b3480156105d657600080fd5b506105f160048036038101906105ec9190612747565b611493565b005b60007f80ac58cd000000000000000000000000000000000000000000000000000000007bffffffffffffffffffffffffffffffffffffffffffffffffffffffff1916827bffffffffffffffffffffffffffffffffffffffffffffffffffffffff191614806106be57507f5b5e139f000000000000000000000000000000000000000000000000000000007bffffffffffffffffffffffffffffffffffffffffffffffffffffffff1916827bffffffffffffffffffffffffffffffffffffffffffffffffffffffff1916145b806106ce57506106cd826115ae565b5b9050919050565b6060600080546106e490613581565b80601f016020809104026020016040519081016040528092919081815260200182805461071090613581565b801561075d5780601f106107325761010080835404028352916020019161075d565b820191906000526020600020905b81548152906001019060200180831161074057829003601f168201915b5050505050905090565b600061077282611618565b6107b1576040517f08c379a00000000000000000000000000000000000000000000000000000000081526004016107a890613150565b60405180910390fd5b6004600083815260200190815260200160002060009054906101000a900473ffffffffffffffffffffffffffffffffffffffff169050919050565b60006107f782610eec565b90508073ffffffffffffffffffffffffffffffffffffffff168373ffffffffffffffffffffffffffffffffffffffff161415610868576040517f08c379a000000000000000000000000000000000000000000000000000000000815260040161085f906131b0565b60405180910390fd5b8073ffffffffffffffffffffffffffffffffffffffff16610887611684565b73ffffffffffffffffffffffffffffffffffffffff1614806108b657506108b5816108b0611684565b611430565b5b6108f5576040517f08c379a00000000000000000000000000000000000000000000000000000000081526004016108ec906130d0565b60405180910390fd5b6108ff838361168c565b505050565b600860029054906101000a900460ff1615610954576040517f08c379a000000000000000000000000000000000000000000000000000000000815260040161094b906131f0565b60405180910390fd5b61095d33611745565b565b61097061096a611684565b826117c0565b6109af576040517f08c379a00000000000000000000000000000000000000000000000000000000081526004016109a6906131d0565b60405180910390fd5b6109ba83838361189e565b505050565b6103e881565b6000600860029054906101000a900460ff16905090565b6109e4611684565b73ffffffffffffffffffffffffffffffffffffffff16610a02611170565b73ffffffffffffffffffffffffffffffffffffffff1614610a58576040517f08c379a0000000000000000000000000000000000000000000000000000000008152600401610a4f90613170565b60405180910390fd5b600047905060008111610a6a57600080fd5b60007395645e9fcfee7882da368963d5a460308df24dd673ffffffffffffffffffffffffffffffffffffffff16600a600884610aa691906133dd565b610ab091906133ac565b604051610abc90612eb7565b60006040518083038185875af1925050503d8060008114610af9576040519150601f19603f3d011682016040523d82523d6000602084013e610afe565b606091505b50509050600073705a47ebc6fce487a3c64a2da64ce2e3b8b2ef5573ffffffffffffffffffffffffffffffffffffffff16600a600285610b3e91906133dd565b610b4891906133ac565b604051610b5490612eb7565b60006040518083038185875af1925050503d8060008114610b91576040519150601f19603f3d011682016040523d82523d6000602084013e610b96565b606091505b5050905060011515821515148015610bb2575060011515811515145b610bf1576040517f08c379a0000000000000000000000000000000000000000000000000000000008152600401610be890613210565b60405180910390fd5b505050565b610c1183838360405180602001604052806000815250611242565b505050565b600860029054906101000a900460ff16610c65576040517f08c379a0000000000000000000000000000000000000000000000000000000008152600401610c5c90613090565b60405180910390fd5b610cb8610c7133611b05565b838380806020026020016040519081016040528093929190818152602001838360200280828437600081840152601f19601f82011690508083019250505050505050611b35565b610cf7576040517f08c379a0000000000000000000000000000000000000000000000000000000008152600401610cee90612fd0565b60405180910390fd5b600033604051602001610d0a9190612e6b565b604051602081830303815290604052805190602001209050600a600082815260200190815260200160002060009054906101000a900460ff1615610d83576040517f08c379a0000000000000000000000000000000000000000000000000000000008152600401610d7a90613030565b60405180910390fd5b6001600a600083815260200190815260200160002060006101000a81548160ff021916908315150217905550610db833611745565b505050565b610dc5611684565b73ffffffffffffffffffffffffffffffffffffffff16610de3611170565b73ffffffffffffffffffffffffffffffffffffffff1614610e39576040517f08c379a0000000000000000000000000000000000000000000000000000000008152600401610e3090613170565b60405180910390fd5b8060079080519060200190610e4f92919061250c565b5050565b610e5b611684565b73ffffffffffffffffffffffffffffffffffffffff16610e79611170565b73ffffffffffffffffffffffffffffffffffffffff1614610ecf576040517f08c379a0000000000000000000000000000000000000000000000000000000008152600401610ec690613170565b60405180910390fd5b80600860026101000a81548160ff02191690831515021790555050565b6000806002600084815260200190815260200160002060009054906101000a900473ffffffffffffffffffffffffffffffffffffffff169050600073ffffffffffffffffffffffffffffffffffffffff168173ffffffffffffffffffffffffffffffffffffffff161415610f95576040517f08c379a0000000000000000000000000000000000000000000000000000000008152600401610f8c90613110565b60405180910390fd5b80915050919050565b60008073ffffffffffffffffffffffffffffffffffffffff168273ffffffffffffffffffffffffffffffffffffffff16141561100f576040517f08c379a0000000000000000000000000000000000000000000000000000000008152600401611006906130f0565b60405180910390fd5b600360008373ffffffffffffffffffffffffffffffffffffffff1673ffffffffffffffffffffffffffffffffffffffff168152602001908152602001600020549050919050565b61105e611684565b73ffffffffffffffffffffffffffffffffffffffff1661107c611170565b73ffffffffffffffffffffffffffffffffffffffff16146110d2576040517f08c379a00000000000000000000000000000000000000000000000000000000081526004016110c990613170565b60405180910390fd5b6110dc6000611b4c565b565b6110e6611684565b73ffffffffffffffffffffffffffffffffffffffff16611104611170565b73ffffffffffffffffffffffffffffffffffffffff161461115a576040517f08c379a000000000000000000000000000000000000000000000000000000000815260040161115190613170565b60405180910390fd5b8060098190555050565b67016345785d8a000081565b6000600660009054906101000a900473ffffffffffffffffffffffffffffffffffffffff16905090565b6060600180546111a990613581565b80601f01602080910402602001604051908101604052809291908181526020018280546111d590613581565b80156112225780601f106111f757610100808354040283529160200191611222565b820191906000526020600020905b81548152906001019060200180831161120557829003601f168201915b5050505050905090565b61123e611237611684565b8383611c12565b5050565b61125361124d611684565b836117c0565b611292576040517f08c379a0000000000000000000000000000000000000000000000000000000008152600401611289906131d0565b60405180910390fd5b61129e84848484611d7f565b50505050565b60606112af82611618565b6112ee576040517f08c379a00000000000000000000000000000000000000000000000000000000081526004016112e590613190565b60405180910390fd5b60006040518060400160405280600581526020017f2e6a736f6e000000000000000000000000000000000000000000000000000000815250905060006007805461133790613581565b80601f016020809104026020016040519081016040528092919081815260200182805461136390613581565b80156113b05780601f10611385576101008083540402835291602001916113b0565b820191906000526020600020905b81548152906001019060200180831161139357829003601f168201915b5050505050905060008151116113d55760405180602001604052806000815250611402565b806113df85611ddb565b836040516020016113f293929190612e86565b6040516020818303038152906040525b92505050919050565b6000600860009054906101000a900461ffff166103e861142b9190613437565b905090565b6000737be8076f4ea4a4ad08075c2508e481d6c946d12b73ffffffffffffffffffffffffffffffffffffffff168273ffffffffffffffffffffffffffffffffffffffff1614611488576114838383611f88565b61148b565b60015b905092915050565b61149b611684565b73ffffffffffffffffffffffffffffffffffffffff166114b9611170565b73ffffffffffffffffffffffffffffffffffffffff161461150f576040517f08c379a000000000000000000000000000000000000000000000000000000000815260040161150690613170565b60405180910390fd5b600073ffffffffffffffffffffffffffffffffffffffff168173ffffffffffffffffffffffffffffffffffffffff16141561157f576040517f08c379a000000000000000000000000000000000000000000000000000000000815260040161157690612fb0565b60405180910390fd5b61158881611b4c565b50565b6000808273ffffffffffffffffffffffffffffffffffffffff163b119050919050565b60007f01ffc9a7000000000000000000000000000000000000000000000000000000007bffffffffffffffffffffffffffffffffffffffffffffffffffffffff1916827bffffffffffffffffffffffffffffffffffffffffffffffffffffffff1916149050919050565b60008073ffffffffffffffffffffffffffffffffffffffff166002600084815260200190815260200160002060009054906101000a900473ffffffffffffffffffffffffffffffffffffffff1673ffffffffffffffffffffffffffffffffffffffff1614159050919050565b600033905090565b816004600083815260200190815260200160002060006101000a81548173ffffffffffffffffffffffffffffffffffffffff021916908373ffffffffffffffffffffffffffffffffffffffff160217905550808273ffffffffffffffffffffffffffffffffffffffff166116ff83610eec565b73ffffffffffffffffffffffffffffffffffffffff167f8c5be1e5ebec7d5bd14f71427d1e84f3dd0314c0f7b2291e5b200ac8c7c3b92560405160405180910390a45050565b6000600860009054906101000a900461ffff1690506103e861ffff168161ffff16106117a6576040517f08c379a000000000000000000000000000000000000000000000000000000000815260040161179d90612f70565b60405180910390fd5b6117ae61201c565b6117bc828261ffff1661204f565b5050565b60006117cb82611618565b61180a576040517f08c379a0000000000000000000000000000000000000000000000000000000008152600401611801906130b0565b60405180910390fd5b600061181583610eec565b90508073ffffffffffffffffffffffffffffffffffffffff168473ffffffffffffffffffffffffffffffffffffffff16148061188457508373ffffffffffffffffffffffffffffffffffffffff1661186c84610767565b73ffffffffffffffffffffffffffffffffffffffff16145b8061189557506118948185611430565b5b91505092915050565b8273ffffffffffffffffffffffffffffffffffffffff166118be82610eec565b73ffffffffffffffffffffffffffffffffffffffff1614611914576040517f08c379a000000000000000000000000000000000000000000000000000000000815260040161190b90612ff0565b60405180910390fd5b600073ffffffffffffffffffffffffffffffffffffffff168273ffffffffffffffffffffffffffffffffffffffff161415611984576040517f08c379a000000000000000000000000000000000000000000000000000000000815260040161197b90613050565b60405180910390fd5b61198f83838361206d565b61199a60008261168c565b6001600360008573ffffffffffffffffffffffffffffffffffffffff1673ffffffffffffffffffffffffffffffffffffffff16815260200190815260200160002060008282546119ea919061346b565b925050819055506001600360008473ffffffffffffffffffffffffffffffffffffffff1673ffffffffffffffffffffffffffffffffffffffff1681526020019081526020016000206000828254611a419190613356565b92505081905550816002600083815260200190815260200160002060006101000a81548173ffffffffffffffffffffffffffffffffffffffff021916908373ffffffffffffffffffffffffffffffffffffffff160217905550808273ffffffffffffffffffffffffffffffffffffffff168473ffffffffffffffffffffffffffffffffffffffff167fddf252ad1be2c89b69c2b068fc378daa952ba7f163c4a11628f55a4df523b3ef60405160405180910390a4611b00838383612072565b505050565b600081604051602001611b189190612e6b565b604051602081830303815290604052805190602001209050919050565b6000611b448260095485612077565b905092915050565b6000600660009054906101000a900473ffffffffffffffffffffffffffffffffffffffff16905081600660006101000a81548173ffffffffffffffffffffffffffffffffffffffff021916908373ffffffffffffffffffffffffffffffffffffffff1602179055508173ffffffffffffffffffffffffffffffffffffffff168173ffffffffffffffffffffffffffffffffffffffff167f8be0079c531659141344cd1fd0a4f28419497f9722a3daafe3b4186f6b6457e060405160405180910390a35050565b8173ffffffffffffffffffffffffffffffffffffffff168373ffffffffffffffffffffffffffffffffffffffff161415611c81576040517f08c379a0000000000000000000000000000000000000000000000000000000008152600401611c7890613070565b60405180910390fd5b80600560008573ffffffffffffffffffffffffffffffffffffffff1673ffffffffffffffffffffffffffffffffffffffff16815260200190815260200160002060008473ffffffffffffffffffffffffffffffffffffffff1673ffffffffffffffffffffffffffffffffffffffff16815260200190815260200160002060006101000a81548160ff0219169083151502179055508173ffffffffffffffffffffffffffffffffffffffff168373ffffffffffffffffffffffffffffffffffffffff167f17307eab39ab6107e8899845ad3d59bd9653f200f220920489ca2b5937696c3183604051611d729190612f33565b60405180910390a3505050565b611d8a84848461189e565b611d968484848461208e565b611dd5576040517f08c379a0000000000000000000000000000000000000000000000000000000008152600401611dcc90612f90565b60405180910390fd5b50505050565b60606000821415611e23576040518060400160405280600181526020017f30000000000000000000000000000000000000000000000000000000000000008152509050611f83565b600082905060005b60008214611e55578080611e3e906135e4565b915050600a82611e4e91906133ac565b9150611e2b565b60008167ffffffffffffffff811115611e97577f4e487b7100000000000000000000000000000000000000000000000000000000600052604160045260246000fd5b6040519080825280601f01601f191660200182016040528015611ec95781602001600182028036833780820191505090505b5090505b60008514611f7c57600182611ee2919061346b565b9150600a85611ef19190613651565b6030611efd9190613356565b60f81b818381518110611f39577f4e487b7100000000000000000000000000000000000000000000000000000000600052603260045260246000fd5b60200101907effffffffffffffffffffffffffffffffffffffffffffffffffffffffffffff1916908160001a905350600a85611f7591906133ac565b9450611ecd565b8093505050505b919050565b6000600560008473ffffffffffffffffffffffffffffffffffffffff1673ffffffffffffffffffffffffffffffffffffffff16815260200190815260200160002060008373ffffffffffffffffffffffffffffffffffffffff1673ffffffffffffffffffffffffffffffffffffffff16815260200190815260200160002060009054906101000a900460ff16905092915050565b6001600860008282829054906101000a900461ffff160192506101000a81548161ffff021916908361ffff160217905550565b612069828260405180602001604052806000815250612225565b5050565b505050565b505050565b6000826120848584612280565b1490509392505050565b60006120af8473ffffffffffffffffffffffffffffffffffffffff1661158b565b15612218578373ffffffffffffffffffffffffffffffffffffffff1663150b7a026120d8611684565b8786866040518563ffffffff1660e01b81526004016120fa9493929190612ee7565b602060405180830381600087803b15801561211457600080fd5b505af192505050801561214557506040513d601f19601f8201168201806040525081019061214291906129ae565b60015b6121c8573d8060008114612175576040519150601f19603f3d011682016040523d82523d6000602084013e61217a565b606091505b506000815114156121c0576040517f08c379a00000000000000000000000000000000000000000000000000000000081526004016121b790612f90565b60405180910390fd5b805181602001fd5b63150b7a0260e01b7bffffffffffffffffffffffffffffffffffffffffffffffffffffffff1916817bffffffffffffffffffffffffffffffffffffffffffffffffffffffff19161491505061221d565b600190505b949350505050565b61222f838361231b565b61223c600084848461208e565b61227b576040517f08c379a000000000000000000000000000000000000000000000000000000000815260040161227290612f90565b60405180910390fd5b505050565b60008082905060005b84518110156123105760008582815181106122cd577f4e487b7100000000000000000000000000000000000000000000000000000000600052603260045260246000fd5b602002602001015190508083116122ef576122e883826124f5565b92506122fc565b6122f981846124f5565b92505b508080612308906135e4565b915050612289565b508091505092915050565b600073ffffffffffffffffffffffffffffffffffffffff168273ffffffffffffffffffffffffffffffffffffffff16141561238b576040517f08c379a000000000000000000000000000000000000000000000000000000000815260040161238290613130565b60405180910390fd5b61239481611618565b156123d4576040517f08c379a00000000000000000000000000000000000000000000000000000000081526004016123cb90613010565b60405180910390fd5b6123e06000838361206d565b6001600360008473ffffffffffffffffffffffffffffffffffffffff1673ffffffffffffffffffffffffffffffffffffffff16815260200190815260200160002060008282546124309190613356565b92505081905550816002600083815260200190815260200160002060006101000a81548173ffffffffffffffffffffffffffffffffffffffff021916908373ffffffffffffffffffffffffffffffffffffffff160217905550808273ffffffffffffffffffffffffffffffffffffffff16600073ffffffffffffffffffffffffffffffffffffffff167fddf252ad1be2c89b69c2b068fc378daa952ba7f163c4a11628f55a4df523b3ef60405160405180910390a46124f160008383612072565b5050565b600082600052816020526040600020905092915050565b82805461251890613581565b90600052602060002090601f01602090048101928261253a5760008555612581565b82601f1061255357805160ff1916838001178555612581565b82800160010185558215612581579182015b82811115612580578251825591602001919060010190612565565b5b50905061258e9190612592565b5090565b5b808211156125ab576000816000905550600101612593565b5090565b60006125c26125bd846132a6565b613281565b9050828152602081018484840111156125da57600080fd5b6125e584828561353f565b509392505050565b60006126006125fb846132d7565b613281565b90508281526020810184848401111561261857600080fd5b61262384828561353f565b509392505050565b60008135905061263a81613cad565b92915050565b60008083601f84011261265257600080fd5b8235905067ffffffffffffffff81111561266b57600080fd5b60208301915083602082028301111561268357600080fd5b9250929050565b60008135905061269981613cc4565b92915050565b6000813590506126ae81613cdb565b92915050565b6000813590506126c381613cf2565b92915050565b6000815190506126d881613cf2565b92915050565b600082601f8301126126ef57600080fd5b81356126ff8482602086016125af565b91505092915050565b600082601f83011261271957600080fd5b81356127298482602086016125ed565b91505092915050565b60008135905061274181613d09565b92915050565b60006020828403121561275957600080fd5b60006127678482850161262b565b91505092915050565b6000806040838503121561278357600080fd5b60006127918582860161262b565b92505060206127a28582860161262b565b9150509250929050565b6000806000606084860312156127c157600080fd5b60006127cf8682870161262b565b93505060206127e08682870161262b565b92505060406127f186828701612732565b9150509250925092565b6000806000806080858703121561281157600080fd5b600061281f8782880161262b565b94505060206128308782880161262b565b935050604061284187828801612732565b925050606085013567ffffffffffffffff81111561285e57600080fd5b61286a878288016126de565b91505092959194509250565b6000806040838503121561288957600080fd5b60006128978582860161262b565b92505060206128a88582860161268a565b9150509250929050565b600080604083850312156128c557600080fd5b60006128d38582860161262b565b92505060206128e485828601612732565b9150509250929050565b6000806020838503121561290157600080fd5b600083013567ffffffffffffffff81111561291b57600080fd5b61292785828601612640565b92509250509250929050565b60006020828403121561294557600080fd5b60006129538482850161268a565b91505092915050565b60006020828403121561296e57600080fd5b600061297c8482850161269f565b91505092915050565b60006020828403121561299757600080fd5b60006129a5848285016126b4565b91505092915050565b6000602082840312156129c057600080fd5b60006129ce848285016126c9565b91505092915050565b6000602082840312156129e957600080fd5b600082013567ffffffffffffffff811115612a0357600080fd5b612a0f84828501612708565b91505092915050565b600060208284031215612a2a57600080fd5b6000612a3884828501612732565b91505092915050565b612a4a8161349f565b82525050565b612a61612a5c8261349f565b61362d565b82525050565b612a70816134b1565b82525050565b6000612a8182613308565b612a8b818561331e565b9350612a9b81856020860161354e565b612aa48161373e565b840191505092915050565b6000612aba82613313565b612ac4818561333a565b9350612ad481856020860161354e565b612add8161373e565b840191505092915050565b6000612af382613313565b612afd818561334b565b9350612b0d81856020860161354e565b80840191505092915050565b6000612b2660148361333a565b9150612b318261375c565b602082019050919050565b6000612b4960328361333a565b9150612b5482613785565b604082019050919050565b6000612b6c60268361333a565b9150612b77826137d4565b604082019050919050565b6000612b8f60148361333a565b9150612b9a82613823565b602082019050919050565b6000612bb260258361333a565b9150612bbd8261384c565b604082019050919050565b6000612bd5601c8361333a565b9150612be08261389b565b602082019050919050565b6000612bf8600f8361333a565b9150612c03826138c4565b602082019050919050565b6000612c1b60248361333a565b9150612c26826138ed565b604082019050919050565b6000612c3e60198361333a565b9150612c498261393c565b602082019050919050565b6000612c6160138361333a565b9150612c6c82613965565b602082019050919050565b6000612c84602c8361333a565b9150612c8f8261398e565b604082019050919050565b6000612ca760388361333a565b9150612cb2826139dd565b604082019050919050565b6000612cca602a8361333a565b9150612cd582613a2c565b604082019050919050565b6000612ced60298361333a565b9150612cf882613a7b565b604082019050919050565b6000612d1060208361333a565b9150612d1b82613aca565b602082019050919050565b6000612d33602c8361333a565b9150612d3e82613af3565b604082019050919050565b6000612d5660208361333a565b9150612d6182613b42565b602082019050919050565b6000612d79602f8361333a565b9150612d8482613b6b565b604082019050919050565b6000612d9c60218361333a565b9150612da782613bba565b604082019050919050565b6000612dbf60008361332f565b9150612dca82613c09565b600082019050919050565b6000612de260318361333a565b9150612ded82613c0c565b604082019050919050565b6000612e05600d8361333a565b9150612e1082613c5b565b602082019050919050565b6000612e28600f8361333a565b9150612e3382613c84565b602082019050919050565b612e47816134f3565b82525050565b612e5681613521565b82525050565b612e658161352b565b82525050565b6000612e778284612a50565b60148201915081905092915050565b6000612e928286612ae8565b9150612e9e8285612ae8565b9150612eaa8284612ae8565b9150819050949350505050565b6000612ec282612db2565b9150819050919050565b6000602082019050612ee16000830184612a41565b92915050565b6000608082019050612efc6000830187612a41565b612f096020830186612a41565b612f166040830185612e4d565b8181036060830152612f288184612a76565b905095945050505050565b6000602082019050612f486000830184612a67565b92915050565b60006020820190508181036000830152612f688184612aaf565b905092915050565b60006020820190508181036000830152612f8981612b19565b9050919050565b60006020820190508181036000830152612fa981612b3c565b9050919050565b60006020820190508181036000830152612fc981612b5f565b9050919050565b60006020820190508181036000830152612fe981612b82565b9050919050565b6000602082019050818103600083015261300981612ba5565b9050919050565b6000602082019050818103600083015261302981612bc8565b9050919050565b6000602082019050818103600083015261304981612beb565b9050919050565b6000602082019050818103600083015261306981612c0e565b9050919050565b6000602082019050818103600083015261308981612c31565b9050919050565b600060208201905081810360008301526130a981612c54565b9050919050565b600060208201905081810360008301526130c981612c77565b9050919050565b600060208201905081810360008301526130e981612c9a565b9050919050565b6000602082019050818103600083015261310981612cbd565b9050919050565b6000602082019050818103600083015261312981612ce0565b9050919050565b6000602082019050818103600083015261314981612d03565b9050919050565b6000602082019050818103600083015261316981612d26565b9050919050565b6000602082019050818103600083015261318981612d49565b9050919050565b600060208201905081810360008301526131a981612d6c565b9050919050565b600060208201905081810360008301526131c981612d8f565b9050919050565b600060208201905081810360008301526131e981612dd5565b9050919050565b6000602082019050818103600083015261320981612df8565b9050919050565b6000602082019050818103600083015261322981612e1b565b9050919050565b60006020820190506132456000830184612e3e565b92915050565b60006020820190506132606000830184612e4d565b92915050565b600060208201905061327b6000830184612e5c565b92915050565b600061328b61329c565b905061329782826135b3565b919050565b6000604051905090565b600067ffffffffffffffff8211156132c1576132c061370f565b5b6132ca8261373e565b9050602081019050919050565b600067ffffffffffffffff8211156132f2576132f161370f565b5b6132fb8261373e565b9050602081019050919050565b600081519050919050565b600081519050919050565b600082825260208201905092915050565b600081905092915050565b600082825260208201905092915050565b600081905092915050565b600061336182613521565b915061336c83613521565b9250827fffffffffffffffffffffffffffffffffffffffffffffffffffffffffffffffff038211156133a1576133a0613682565b5b828201905092915050565b60006133b782613521565b91506133c283613521565b9250826133d2576133d16136b1565b5b828204905092915050565b60006133e882613521565b91506133f383613521565b9250817fffffffffffffffffffffffffffffffffffffffffffffffffffffffffffffffff048311821515161561342c5761342b613682565b5b828202905092915050565b6000613442826134f3565b915061344d836134f3565b9250828210156134605761345f613682565b5b828203905092915050565b600061347682613521565b915061348183613521565b92508282101561349457613493613682565b5b828203905092915050565b60006134aa82613501565b9050919050565b60008115159050919050565b6000819050919050565b60007fffffffff0000000000000000000000000000000000000000000000000000000082169050919050565b600061ffff82169050919050565b600073ffffffffffffffffffffffffffffffffffffffff82169050919050565b6000819050919050565b600067ffffffffffffffff82169050919050565b82818337600083830152505050565b60005b8381101561356c578082015181840152602081019050613551565b8381111561357b576000848401525b50505050565b6000600282049050600182168061359957607f821691505b602082108114156135ad576135ac6136e0565b5b50919050565b6135bc8261373e565b810181811067ffffffffffffffff821117156135db576135da61370f565b5b80604052505050565b60006135ef82613521565b91507fffffffffffffffffffffffffffffffffffffffffffffffffffffffffffffffff82141561362257613621613682565b5b600182019050919050565b60006136388261363f565b9050919050565b600061364a8261374f565b9050919050565b600061365c82613521565b915061366783613521565b925082613677576136766136b1565b5b828206905092915050565b7f4e487b7100000000000000000000000000000000000000000000000000000000600052601160045260246000fd5b7f4e487b7100000000000000000000000000000000000000000000000000000000600052601260045260246000fd5b7f4e487b7100000000000000000000000000000000000000000000000000000000600052602260045260246000fd5b7f4e487b7100000000000000000000000000000000000000000000000000000000600052604160045260246000fd5b6000601f19601f8301169050919050565b60008160601b9050919050565b7f6578636565647320746f6b656e20737570706c79000000000000000000000000600082015250565b7f4552433732313a207472616e7366657220746f206e6f6e20455243373231526560008201527f63656976657220696d706c656d656e7465720000000000000000000000000000602082015250565b7f4f776e61626c653a206e6577206f776e657220697320746865207a65726f206160008201527f6464726573730000000000000000000000000000000000000000000000000000602082015250565b7f696e76616c6964206d65726b6c652070726f6f66000000000000000000000000600082015250565b7f4552433732313a207472616e736665722066726f6d20696e636f72726563742060008201527f6f776e6572000000000000000000000000000000000000000000000000000000602082015250565b7f4552433732313a20746f6b656e20616c7265616479206d696e74656400000000600082015250565b7f616c726561647920636c61696d65640000000000000000000000000000000000600082015250565b7f4552433732313a207472616e7366657220746f20746865207a65726f2061646460008201527f7265737300000000000000000000000000000000000000000000000000000000602082015250565b7f4552433732313a20617070726f766520746f2063616c6c657200000000000000600082015250565b7f6e6f742061207072656d696e7420706861736500000000000000000000000000600082015250565b7f4552433732313a206f70657261746f7220717565727920666f72206e6f6e657860008201527f697374656e7420746f6b656e0000000000000000000000000000000000000000602082015250565b7f4552433732313a20617070726f76652063616c6c6572206973206e6f74206f7760008201527f6e6572206e6f7220617070726f76656420666f7220616c6c0000000000000000602082015250565b7f4552433732313a2062616c616e636520717565727920666f7220746865207a6560008201527f726f206164647265737300000000000000000000000000000000000000000000602082015250565b7f4552433732313a206f776e657220717565727920666f72206e6f6e657869737460008201527f656e7420746f6b656e0000000000000000000000000000000000000000000000602082015250565b7f4552433732313a206d696e7420746f20746865207a65726f2061646472657373600082015250565b7f4552433732313a20617070726f76656420717565727920666f72206e6f6e657860008201527f697374656e7420746f6b656e0000000000000000000000000000000000000000602082015250565b7f4f776e61626c653a2063616c6c6572206973206e6f7420746865206f776e6572600082015250565b7f4552433732314d657461646174613a2055524920717565727920666f72206e6f60008201527f6e6578697374656e7420746f6b656e0000000000000000000000000000000000602082015250565b7f4552433732313a20617070726f76616c20746f2063757272656e74206f776e6560008201527f7200000000000000000000000000000000000000000000000000000000000000602082015250565b50565b7f4552433732313a207472616e736665722063616c6c6572206973206e6f74206f60008201527f776e6572206e6f7220617070726f766564000000000000000000000000000000602082015250565b7f7072656d696e7420706861736500000000000000000000000000000000000000600082015250565b7f7769746864726177206661696c65640000000000000000000000000000000000600082015250565b613cb68161349f565b8114613cc157600080fd5b50565b613ccd816134b1565b8114613cd857600080fd5b50565b613ce4816134bd565b8114613cef57600080fd5b50565b613cfb816134c7565b8114613d0657600080fd5b50565b613d1281613521565b8114613d1d57600080fd5b5056fea2646970667358221220003d0692a0ae603e52be94dd5f71c74d62b79e576675edc69a1c6a180ee25cba64736f6c63430008040033",
  "linkReferences": {},
  "deployedLinkReferences": {}
}